{
  "abi": [
    {
      "inputs": [],
      "stateMutability": "nonpayable",
      "type": "constructor"
    },
    {
      "anonymous": false,
      "inputs": [
        {
          "indexed": true,
          "internalType": "address",
          "name": "_collector",
          "type": "address"
        },
        {
          "indexed": true,
          "internalType": "address",
          "name": "_tokenAddress",
          "type": "address"
        },
        {
          "indexed": false,
          "internalType": "uint8",
          "name": "_mode",
          "type": "uint8"
        },
        {
          "indexed": false,
          "internalType": "uint256",
          "name": "_tokenAmount",
          "type": "uint256"
        },
        {
          "indexed": false,
          "internalType": "bytes32",
          "name": "_id",
          "type": "bytes32"
        }
      ],
      "name": "Collect",
      "type": "event"
    },
    {
      "anonymous": false,
      "inputs": [
        {
          "indexed": true,
          "internalType": "bytes32",
          "name": "_id",
          "type": "bytes32"
        },
        {
          "indexed": false,
          "internalType": "address",
          "name": "_tokenAddr",
          "type": "address"
        },
        {
          "indexed": false,
          "internalType": "uint256",
          "name": "_tokenAmount",
          "type": "uint256"
        },
        {
          "indexed": false,
          "internalType": "uint256",
          "name": "_expireTime",
          "type": "uint256"
        },
        {
          "indexed": false,
          "internalType": "uint256",
          "name": "_collectorCount",
          "type": "uint256"
        },
        {
          "indexed": false,
          "internalType": "uint256",
          "name": "_fee",
          "type": "uint256"
        },
        {
          "indexed": false,
          "internalType": "uint256",
          "name": "_gasRefund",
          "type": "uint256"
        }
      ],
      "name": "Create",
      "type": "event"
    },
    {
      "anonymous": false,
      "inputs": [
        {
          "indexed": true,
          "internalType": "address",
          "name": "_sender",
          "type": "address"
        },
        {
          "indexed": false,
          "internalType": "address",
          "name": "_tokenAddr",
          "type": "address"
        },
        {
          "indexed": false,
          "internalType": "uint256",
          "name": "_tokenAmount",
          "type": "uint256"
        },
        {
          "indexed": false,
          "internalType": "uint256",
          "name": "_fee",
          "type": "uint256"
        }
      ],
      "name": "Disperse",
      "type": "event"
    },
    {
      "anonymous": false,
      "inputs": [
        {
          "indexed": true,
          "internalType": "bytes32",
          "name": "_id",
          "type": "bytes32"
        },
        {
          "indexed": true,
          "internalType": "address",
          "name": "_caller",
          "type": "address"
        },
        {
          "indexed": false,
          "internalType": "uint256",
          "name": "_remainCollector",
          "type": "uint256"
        },
        {
          "indexed": false,
          "internalType": "uint256",
          "name": "_remainTokenAmount",
          "type": "uint256"
        }
      ],
      "name": "Distribute",
      "type": "event"
    },
    {
      "anonymous": false,
      "inputs": [
        {
          "indexed": false,
          "internalType": "uint16",
          "name": "feeRate",
          "type": "uint16"
        }
      ],
      "name": "FeeRateUpdate",
      "type": "event"
    },
    {
      "anonymous": false,
      "inputs": [
        {
          "indexed": false,
          "internalType": "address",
          "name": "receiver",
          "type": "address"
        }
      ],
      "name": "FeeReceiverUpdate",
      "type": "event"
    },
    {
      "anonymous": false,
      "inputs": [
        {
          "indexed": false,
          "internalType": "address",
          "name": "oldOwner",
          "type": "address"
        },
        {
          "indexed": false,
          "internalType": "address",
          "name": "newOwner",
          "type": "address"
        }
      ],
      "name": "OwnershipUpdate",
      "type": "event"
    },
    {
      "anonymous": false,
      "inputs": [
        {
          "indexed": true,
          "internalType": "address",
          "name": "_collector",
          "type": "address"
        },
        {
          "indexed": true,
          "internalType": "address",
          "name": "_tokenAddr",
          "type": "address"
        },
        {
          "indexed": false,
          "internalType": "uint8",
          "name": "_mode",
          "type": "uint8"
        },
        {
          "indexed": false,
          "internalType": "uint256",
          "name": "amount",
          "type": "uint256"
        }
      ],
      "name": "RewardCollect",
      "type": "event"
    },
    {
      "inputs": [
        {
          "internalType": "address",
          "name": "_owner",
          "type": "address"
        },
        {
          "internalType": "address",
          "name": "_feeReceiver",
          "type": "address"
        }
      ],
      "name": "GetInitializeData",
      "outputs": [
        {
          "internalType": "bytes",
          "name": "",
          "type": "bytes"
        }
      ],
      "stateMutability": "pure",
      "type": "function"
    },
    {
      "inputs": [
        {
          "internalType": "address",
          "name": "tokenAddr",
          "type": "address"
        },
        {
          "internalType": "uint256",
          "name": "amount",
          "type": "uint256"
        }
      ],
      "name": "addReward",
      "outputs": [],
      "stateMutability": "nonpayable",
      "type": "function"
    },
    {
      "inputs": [
        {
          "internalType": "bytes32",
          "name": "rootSeed",
          "type": "bytes32"
        },
        {
          "internalType": "bytes32",
          "name": "seed",
          "type": "bytes32"
        },
        {
          "internalType": "uint256",
          "name": "remainAmount",
          "type": "uint256"
        },
        {
          "internalType": "uint256",
          "name": "remainCount",
          "type": "uint256"
        }
      ],
      "name": "calculateRandomAmount",
      "outputs": [
        {
          "internalType": "uint256",
          "name": "",
          "type": "uint256"
        }
      ],
      "stateMutability": "pure",
      "type": "function"
    },
    {
      "inputs": [
        {
          "internalType": "address",
          "name": "rewardToken",
          "type": "address"
        },
        {
          "internalType": "uint256",
          "name": "forSender",
          "type": "uint256"
        },
        {
          "internalType": "uint256",
          "name": "forReceiver",
          "type": "uint256"
        }
      ],
      "name": "configRewardRate",
      "outputs": [],
      "stateMutability": "nonpayable",
      "type": "function"
    },
    {
      "inputs": [
        {
          "internalType": "uint256",
          "name": "expireTime",
          "type": "uint256"
        },
        {
          "internalType": "uint8",
          "name": "mode",
          "type": "uint8"
        },
        {
          "internalType": "address",
          "name": "tokenAddr",
          "type": "address"
        },
        {
          "internalType": "uint256",
          "name": "tokenAmount",
          "type": "uint256"
        },
        {
          "internalType": "uint256",
          "name": "collectorCount",
          "type": "uint256"
        }
      ],
      "name": "create",
      "outputs": [
        {
          "internalType": "bytes32",
          "name": "",
          "type": "bytes32"
        }
      ],
      "stateMutability": "payable",
      "type": "function"
    },
    {
      "inputs": [
        {
          "internalType": "address payable[]",
          "name": "recipients",
          "type": "address[]"
        },
        {
          "internalType": "uint256[]",
          "name": "values",
          "type": "uint256[]"
        }
      ],
      "name": "disperseEther",
      "outputs": [],
      "stateMutability": "payable",
      "type": "function"
    },
    {
      "inputs": [
        {
          "internalType": "contract IERC20",
          "name": "token",
          "type": "address"
        },
        {
          "internalType": "address[]",
          "name": "recipients",
          "type": "address[]"
        },
        {
          "internalType": "uint256[]",
          "name": "values",
          "type": "uint256[]"
        }
      ],
      "name": "disperseToken",
      "outputs": [],
      "stateMutability": "nonpayable",
      "type": "function"
    },
    {
      "inputs": [
        {
          "internalType": "bytes32",
          "name": "luckyMoneyId",
          "type": "bytes32"
        }
      ],
      "name": "distribute",
      "outputs": [],
      "stateMutability": "nonpayable",
      "type": "function"
    },
    {
      "inputs": [
        {
          "internalType": "bytes32",
          "name": "luckyMoneyId",
          "type": "bytes32"
        }
      ],
      "name": "expireTime",
      "outputs": [
        {
          "internalType": "uint256",
          "name": "",
          "type": "uint256"
        }
      ],
      "stateMutability": "view",
      "type": "function"
    },
    {
      "inputs": [],
      "name": "feeBase",
      "outputs": [
        {
          "internalType": "uint16",
          "name": "",
          "type": "uint16"
        }
      ],
      "stateMutability": "view",
      "type": "function"
    },
    {
      "inputs": [
        {
          "internalType": "uint256",
          "name": "amount",
          "type": "uint256"
        }
      ],
      "name": "feeOf",
      "outputs": [
        {
          "internalType": "uint256",
          "name": "",
          "type": "uint256"
        }
      ],
      "stateMutability": "view",
      "type": "function"
    },
    {
      "inputs": [],
      "name": "feeRate",
      "outputs": [
        {
          "internalType": "uint16",
          "name": "",
          "type": "uint16"
        }
      ],
      "stateMutability": "view",
      "type": "function"
    },
    {
      "inputs": [],
      "name": "feeReceiver",
      "outputs": [
        {
          "internalType": "address",
          "name": "",
          "type": "address"
        }
      ],
      "stateMutability": "view",
      "type": "function"
    },
    {
      "inputs": [
        {
          "internalType": "address",
          "name": "addr",
          "type": "address"
        }
      ],
      "name": "getBlockAsSeed",
      "outputs": [
        {
          "internalType": "bytes32",
          "name": "",
          "type": "bytes32"
        }
      ],
      "stateMutability": "view",
      "type": "function"
    },
    {
      "inputs": [
        {
          "internalType": "bytes32",
          "name": "_luckyMoneyId",
          "type": "bytes32"
        },
        {
          "internalType": "address",
          "name": "_collector",
          "type": "address"
        }
      ],
      "name": "getEthSignedMessageHash",
      "outputs": [
        {
          "internalType": "bytes32",
          "name": "",
          "type": "bytes32"
        }
      ],
      "stateMutability": "pure",
      "type": "function"
    },
    {
      "inputs": [
        {
          "internalType": "address",
          "name": "_creator",
          "type": "address"
        },
        {
          "internalType": "uint256",
          "name": "_startTime",
          "type": "uint256"
        },
        {
          "internalType": "address",
          "name": "_tokenAddr",
          "type": "address"
        },
        {
          "internalType": "uint256",
          "name": "_tokenAmount",
          "type": "uint256"
        },
        {
          "internalType": "uint256",
          "name": "_collectorCount",
          "type": "uint256"
        }
      ],
      "name": "getLuckyMoneyId",
      "outputs": [
        {
          "internalType": "bytes32",
          "name": "",
          "type": "bytes32"
        }
      ],
      "stateMutability": "pure",
      "type": "function"
    },
    {
      "inputs": [
        {
          "internalType": "bytes32",
          "name": "_luckyMoneyId",
          "type": "bytes32"
        },
        {
          "internalType": "address",
          "name": "_collector",
          "type": "address"
        }
      ],
      "name": "getMessageHash",
      "outputs": [
        {
          "internalType": "bytes32",
          "name": "",
          "type": "bytes32"
        }
      ],
      "stateMutability": "pure",
      "type": "function"
    },
    {
      "inputs": [
        {
          "internalType": "bytes32",
          "name": "luckyMoneyId",
          "type": "bytes32"
        },
        {
          "internalType": "address",
          "name": "collector",
          "type": "address"
        }
      ],
      "name": "hasCollected",
      "outputs": [
        {
          "internalType": "bool",
          "name": "",
          "type": "bool"
        }
      ],
      "stateMutability": "view",
      "type": "function"
    },
    {
      "inputs": [
        {
          "internalType": "address",
          "name": "_owner",
          "type": "address"
        },
        {
          "internalType": "address",
          "name": "_feeReceiver",
          "type": "address"
        }
      ],
      "name": "initialize",
      "outputs": [],
      "stateMutability": "nonpayable",
      "type": "function"
    },
    {
      "inputs": [
        {
          "internalType": "bytes32",
          "name": "",
          "type": "bytes32"
        }
      ],
      "name": "luckyMoneys",
      "outputs": [
        {
          "internalType": "address",
          "name": "creator",
          "type": "address"
        },
        {
          "internalType": "uint256",
          "name": "expireTime",
          "type": "uint256"
        },
        {
          "internalType": "uint8",
          "name": "mode",
          "type": "uint8"
        },
        {
          "internalType": "address",
          "name": "tokenAddr",
          "type": "address"
        },
        {
          "internalType": "uint256",
          "name": "tokenAmount",
          "type": "uint256"
        },
        {
          "internalType": "uint256",
          "name": "collectorCount",
          "type": "uint256"
        },
        {
          "internalType": "uint256",
          "name": "nonce",
          "type": "uint256"
        },
        {
          "internalType": "uint256",
          "name": "refundAmount",
          "type": "uint256"
        }
      ],
      "stateMutability": "view",
      "type": "function"
    },
    {
      "inputs": [],
      "name": "owner",
      "outputs": [
        {
          "internalType": "address",
          "name": "",
          "type": "address"
        }
      ],
      "stateMutability": "view",
      "type": "function"
    },
    {
      "inputs": [
        {
          "internalType": "bytes32",
          "name": "_ethSignedMessageHash",
          "type": "bytes32"
        },
        {
          "internalType": "bytes",
          "name": "_signature",
          "type": "bytes"
        }
      ],
      "name": "recoverSigner",
      "outputs": [
        {
          "internalType": "address",
          "name": "",
          "type": "address"
        }
      ],
      "stateMutability": "pure",
      "type": "function"
    },
    {
      "inputs": [],
      "name": "refundAmount",
      "outputs": [
        {
          "internalType": "uint256",
          "name": "",
          "type": "uint256"
        }
      ],
      "stateMutability": "view",
      "type": "function"
    },
    {
      "inputs": [
        {
          "internalType": "address",
          "name": "",
          "type": "address"
        }
      ],
      "name": "rewardBalances",
      "outputs": [
        {
          "internalType": "uint256",
          "name": "",
          "type": "uint256"
        }
      ],
      "stateMutability": "view",
      "type": "function"
    },
    {
      "inputs": [
        {
          "internalType": "address",
          "name": "",
          "type": "address"
        }
      ],
      "name": "rewardConfigs",
      "outputs": [
        {
          "internalType": "uint256",
          "name": "forSender",
          "type": "uint256"
        },
        {
          "internalType": "uint256",
          "name": "forReceiver",
          "type": "uint256"
        }
      ],
      "stateMutability": "view",
      "type": "function"
    },
    {
      "inputs": [
        {
          "internalType": "uint256",
          "name": "",
          "type": "uint256"
        }
      ],
      "name": "rewards",
      "outputs": [
        {
          "internalType": "address",
          "name": "",
          "type": "address"
        }
      ],
      "stateMutability": "view",
      "type": "function"
    },
    {
      "inputs": [
        {
          "internalType": "uint16",
          "name": "_feeRate",
          "type": "uint16"
        }
      ],
      "name": "setFeeRate",
      "outputs": [],
      "stateMutability": "nonpayable",
      "type": "function"
    },
    {
      "inputs": [
        {
          "internalType": "address",
          "name": "_receiver",
          "type": "address"
        }
      ],
      "name": "setFeeReceiver",
      "outputs": [],
      "stateMutability": "nonpayable",
      "type": "function"
    },
    {
      "inputs": [
        {
          "internalType": "address",
          "name": "_owner",
          "type": "address"
        }
      ],
      "name": "setOwner",
      "outputs": [],
      "stateMutability": "nonpayable",
      "type": "function"
    },
    {
      "inputs": [
        {
          "internalType": "uint256",
          "name": "_amount",
          "type": "uint256"
        }
      ],
      "name": "setRefundAmount",
      "outputs": [],
      "stateMutability": "nonpayable",
      "type": "function"
    },
    {
      "inputs": [
        {
          "internalType": "address[]",
          "name": "rewardTokens",
          "type": "address[]"
        }
      ],
      "name": "setRewardTokens",
      "outputs": [],
      "stateMutability": "nonpayable",
      "type": "function"
    },
    {
      "inputs": [
        {
          "internalType": "bytes",
          "name": "sig",
          "type": "bytes"
        }
      ],
      "name": "splitSignature",
      "outputs": [
        {
          "internalType": "bytes32",
          "name": "r",
          "type": "bytes32"
        },
        {
          "internalType": "bytes32",
          "name": "s",
          "type": "bytes32"
        },
        {
          "internalType": "uint8",
          "name": "v",
          "type": "uint8"
        }
      ],
      "stateMutability": "pure",
      "type": "function"
    },
    {
      "inputs": [
        {
          "internalType": "bytes32",
          "name": "luckyMoneyId",
          "type": "bytes32"
        },
        {
          "internalType": "bytes",
          "name": "signature",
          "type": "bytes"
        }
      ],
      "name": "submit",
      "outputs": [],
      "stateMutability": "nonpayable",
      "type": "function"
    },
    {
      "inputs": [
        {
          "internalType": "address",
          "name": "tokenAddr",
          "type": "address"
        },
        {
          "internalType": "uint256",
          "name": "amount",
          "type": "uint256"
        }
      ],
      "name": "withdrawReward",
      "outputs": [],
      "stateMutability": "nonpayable",
      "type": "function"
    }
  ],
  "bytecode": "608060405266038d7ea4c6800060075560088054600a61ffff199091161763ffff00001916632710000017905534801561003857600080fd5b5060018055612d3e8061004c6000396000f3fe6080604052600436106101f95760003560e01c80639feb8f501161010d578063bc5efbdd116100a0578063e63d38ed1161006f578063e63d38ed14610bb4578063ea40f8fe14610cd7578063eaf248fc14610d01578063efdcd97414610d34578063f301af4214610d67576101f9565b8063bc5efbdd146109ca578063c27af08a146109f4578063c73a2d6014610a33578063e008357414610b73576101f9565b8063af9e3a36116100dc578063af9e3a36146108db578063b3f0067414610905578063b48dbd501461091a578063b498fa36146109a0576101f9565b80639feb8f501461077f578063a460fddf146107b8578063a7bb5803146107f4578063ad33513f146108c6576101f9565b80637935034f1161019057806393c8dc6d1161015f57806393c8dc6d1461060757806395e911a81461063a578063978bbdb91461066657806397aba7f91461067b5780639c9ff36314610733576101f9565b80637935034f146104a0578063861b2caf146104d95780638ac9aa00146105895780638da5cb5b146105d6576101f9565b80633d5376fa116101cc5780633d5376fa14610329578063485cc955146103e15780634a27fefe1461041c57806358d3232f14610467576101f9565b806313af4035146101fe578063201e81a81461023357806329ff0773146102ae57806336875ccf146102dc575b600080fd5b34801561020a57600080fd5b506102316004803603602081101561022157600080fd5b50356001600160a01b0316610d91565b005b34801561023f57600080fd5b506102316004803603602081101561025657600080fd5b810190602081018135600160201b81111561027057600080fd5b82018360208201111561028257600080fd5b803590602001918460208302840111600160201b831117156102a357600080fd5b509092509050610e4f565b3480156102ba57600080fd5b50610231600480360360208110156102d157600080fd5b503561ffff16610eb4565b3480156102e857600080fd5b50610315600480360360408110156102ff57600080fd5b50803590602001356001600160a01b0316610fad565b604080519115158252519081900360200190f35b34801561033557600080fd5b506102316004803603604081101561034c57600080fd5b81359190810190604081016020820135600160201b81111561036d57600080fd5b82018360208201111561037f57600080fd5b803590602001918460018302840111600160201b831117156103a057600080fd5b91908080601f016020809104026020016040519081016040528093929190818152602001838380828437600092019190915250929550610fdc945050505050565b3480156103ed57600080fd5b506102316004803603604081101561040457600080fd5b506001600160a01b038135811691602001351661119d565b34801561042857600080fd5b506104556004803603604081101561043f57600080fd5b50803590602001356001600160a01b03166112a9565b60408051918252519081900360200190f35b34801561047357600080fd5b506102316004803603604081101561048a57600080fd5b506001600160a01b038135169060200135611310565b3480156104ac57600080fd5b50610455600480360360408110156104c357600080fd5b50803590602001356001600160a01b03166113f8565b3480156104e557600080fd5b50610514600480360360408110156104fc57600080fd5b506001600160a01b0381358116916020013516611437565b6040805160208082528351818301528351919283929083019185019080838360005b8381101561054e578181015183820152602001610536565b50505050905090810190601f16801561057b5780820380516001836020036101000a031916815260200191505b509250505060405180910390f35b34801561059557600080fd5b50610455600480360360a08110156105ac57600080fd5b506001600160a01b0381358116916020810135916040820135169060608101359060800135611488565b3480156105e257600080fd5b506105eb6114e8565b604080516001600160a01b039092168252519081900360200190f35b34801561061357600080fd5b506104556004803603602081101561062a57600080fd5b50356001600160a01b03166114f7565b34801561064657600080fd5b5061064f611509565b6040805161ffff9092168252519081900360200190f35b34801561067257600080fd5b5061064f611519565b34801561068757600080fd5b506105eb6004803603604081101561069e57600080fd5b81359190810190604081016020820135600160201b8111156106bf57600080fd5b8201836020820111156106d157600080fd5b803590602001918460018302840111600160201b831117156106f257600080fd5b91908080601f016020809104026020016040519081016040528093929190818152602001838380828437600092019190915250929550611523945050505050565b34801561073f57600080fd5b506107666004803603602081101561075657600080fd5b50356001600160a01b03166115a7565b6040805192835260208301919091528051918290030190f35b34801561078b57600080fd5b50610231600480360360408110156107a257600080fd5b506001600160a01b0381351690602001356115c0565b3480156107c457600080fd5b50610455600480360360808110156107db57600080fd5b50803590602081013590604081013590606001356115f7565b34801561080057600080fd5b506108a56004803603602081101561081757600080fd5b810190602081018135600160201b81111561083157600080fd5b82018360208201111561084357600080fd5b803590602001918460018302840111600160201b8311171561086457600080fd5b91908080601f01602080910402602001604051908101604052809392919081815260200183838082843760009201919091525092955061167a945050505050565b60408051938452602084019290925260ff1682820152519081900360600190f35b3480156108d257600080fd5b506104556116f3565b3480156108e757600080fd5b50610455600480360360208110156108fe57600080fd5b50356116f9565b34801561091157600080fd5b506105eb61171c565b34801561092657600080fd5b506109446004803603602081101561093d57600080fd5b5035611732565b60405180896001600160a01b031681526020018881526020018760ff168152602001866001600160a01b031681526020018581526020018481526020018381526020018281526020019850505050505050505060405180910390f35b3480156109ac57600080fd5b50610455600480360360208110156109c357600080fd5b5035611783565b3480156109d657600080fd5b50610231600480360360208110156109ed57600080fd5b5035611798565b348015610a0057600080fd5b5061023160048036036060811015610a1757600080fd5b506001600160a01b0381351690602081013590604001356117f1565b348015610a3f57600080fd5b5061023160048036036060811015610a5657600080fd5b6001600160a01b038235169190810190604081016020820135600160201b811115610a8057600080fd5b820183602082011115610a9257600080fd5b803590602001918460208302840111600160201b83111715610ab357600080fd5b9190808060200260200160405190810160405280939291908181526020018383602002808284376000920191909152509295949360208101935035915050600160201b811115610b0257600080fd5b820183602082011115610b1457600080fd5b803590602001918460208302840111600160201b83111715610b3557600080fd5b91908080602002602001604051908101604052809392919081815260200183836020028082843760009201919091525092955061187f945050505050565b610455600480360360a0811015610b8957600080fd5b5080359060ff602082013516906001600160a01b036040820135169060608101359060800135611a07565b61023160048036036040811015610bca57600080fd5b810190602081018135600160201b811115610be457600080fd5b820183602082011115610bf657600080fd5b803590602001918460208302840111600160201b83111715610c1757600080fd5b9190808060200260200160405190810160405280939291908181526020018383602002808284376000920191909152509295949360208101935035915050600160201b811115610c6657600080fd5b820183602082011115610c7857600080fd5b803590602001918460208302840111600160201b83111715610c9957600080fd5b919080806020026020016040519081016040528093929190818152602001838360200280828437600092019190915250929550611bba945050505050565b348015610ce357600080fd5b5061023160048036036020811015610cfa57600080fd5b5035611d4e565b348015610d0d57600080fd5b5061045560048036036020811015610d2457600080fd5b50356001600160a01b031661238f565b348015610d4057600080fd5b5061023160048036036020811015610d5757600080fd5b50356001600160a01b03166123d7565b348015610d7357600080fd5b506105eb60048036036020811015610d8a57600080fd5b50356124d1565b6006546001600160a01b03163314610de5576040805162461bcd60e51b8152602060048201526012602482015271383934bb34b632b233b2b21030b1ba34b7b760711b604482015290519081900360640190fd5b600654604080516001600160a01b039283168152918316602083015280517fe366b15bfd568800b5088faecf86f28b1e3ea0720e3d6bf79c7bdb105ab966529281900390910190a1600680546001600160a01b0319166001600160a01b0392909216919091179055565b6006546001600160a01b03163314610ea3576040805162461bcd60e51b8152602060048201526012602482015271383934bb34b632b233b2b21030b1ba34b7b760711b604482015290519081900360640190fd5b610eaf60038383612b31565b505050565b6006546001600160a01b03163314610f08576040805162461bcd60e51b8152602060048201526012602482015271383934bb34b632b233b2b21030b1ba34b7b760711b604482015290519081900360640190fd5b6127108161ffff161115610f63576040805162461bcd60e51b815260206004820152601a60248201527f66656520726174652067726561746572207468616e2031303025000000000000604482015290519081900360640190fd5b6008805461ffff831661ffff19909116811790915560408051918252517f14282c9567a0bd8773e3d001cf3479f767741657f6407b023a012fd1cfd8b06d9181900360200190a150565b60008281526002602090815260408083206001600160a01b038516845260070190915290205460ff1692915050565b60008281526002602052604090203390610ff68483610fad565b1561103b576040805162461bcd60e51b815260206004820152601060248201526f636f6c6c6563746564206265666f726560801b604482015290519081900360640190fd5b8060040154816005015410611090576040805162461bcd60e51b815260206004820152601660248201527518dbdb1b1958dd1bdc8818dbdd5b9d08195e18d9595960521b604482015290519081900360640190fd5b600061109c85846112a9565b82549091506001600160a01b03166110b48286611523565b6001600160a01b03161461110f576040805162461bcd60e51b815260206004820152601f60248201527f7369676e6174757265206e6f74207369676e65642062792063726561746f7200604482015290519081900360640190fd5b6040518060400160405280846001600160a01b031681526020016111328561238f565b905260058301805460009081526008850160209081526040808320855181546001600160a01b0319166001600160a01b039182161782559583015160019182015584548101909455969093168152600790940190915292909120805460ff1916909217909155505050565b600054610100900460ff16806111b657506111b66124f8565b806111c4575060005460ff16155b6111ff5760405162461bcd60e51b815260040180806020018281038252602e815260200180612c48602e913960400191505060405180910390fd5b600054610100900460ff1615801561122a576000805460ff1961ff0019909116610100171660011790555b600680546001600160a01b0319166001600160a01b038581169190911790915560088054600a640100000000600160c01b0319909116600160201b938616939093029290921761ffff19169190911763ffff00001916632710000017905566038d7ea4c680006007558015610eaf576000805461ff0019169055505050565b6000806112b684846113f8565b90508060405160200180807f19457468657265756d205369676e6564204d6573736167653a0a333200000000815250601c018281526020019150506040516020818303038152906040528051906020012091505092915050565b6006546001600160a01b03163314611364576040805162461bcd60e51b8152602060048201526012602482015271383934bb34b632b233b2b21030b1ba34b7b760711b604482015290519081900360640190fd5b6001600160a01b0382166000908152600560205260409020548111156113bb5760405162461bcd60e51b8152600401808060200182810382526024815260200180612c766024913960400191505060405180910390fd5b6006546113d5906001600160a01b03848116911683612509565b6001600160a01b0390911660009081526005602052604090208054919091039055565b6040805160208082019490945260609290921b6bffffffffffffffffffffffff1916828201528051808303603401815260549092019052805191012090565b604080516001600160a01b03808516602483015283166044808301919091528251808303909101815260649091019091526020810180516001600160e01b031663485cc95560e01b17905292915050565b604080516bffffffffffffffffffffffff19606097881b811660208084019190915260348301979097529490961b909316605486015260688501919091526088808501919091528151808503909101815260a89093019052815191012090565b6006546001600160a01b031681565b60056020526000908152604090205481565b60085462010000900461ffff1681565b60085461ffff1681565b6000806000806115328561167a565b92509250925060018682858560405160008152602001604052604051808581526020018460ff1681526020018381526020018281526020019450505050506020604051602081039080840390855afa158015611592573d6000803e3d6000fd5b5050604051601f190151979650505050505050565b6004602052600090815260409020805460019091015482565b6115d56001600160a01b03831633308461255b565b6001600160a01b03909116600090815260056020526040902080549091019055565b600080600183141561160a57508261166f565b8383141561161a5750600161166f565b8383101561166f5782848161162b57fe5b04600202868660405160200180838152602001828152602001925050506040516020818303038152906040528051906020012060001c8161166857fe5b0660010190505b90505b949350505050565b600080600083516041146116d5576040805162461bcd60e51b815260206004820152601860248201527f696e76616c6964207369676e6174757265206c656e6774680000000000000000604482015290519081900360640190fd5b50505060208101516040820151606090920151909260009190911a90565b60075481565b60085460009061ffff6201000082048116911683028161171557fe5b0492915050565b600854600160201b90046001600160a01b031681565b600260208190526000918252604090912080546001820154928201546003830154600484015460058501546006909501546001600160a01b03948516969560ff851695610100909504909416939088565b60009081526002602052604090206001015490565b6006546001600160a01b031633146117ec576040805162461bcd60e51b8152602060048201526012602482015271383934bb34b632b233b2b21030b1ba34b7b760711b604482015290519081900360640190fd5b600755565b6006546001600160a01b03163314611845576040805162461bcd60e51b8152602060048201526012602482015271383934bb34b632b233b2b21030b1ba34b7b760711b604482015290519081900360640190fd5b60408051808201825292835260208084019283526001600160a01b0390941660009081526004909452909220905181559051600190910155565b336000805b84518110156118b25783818151811061189957fe5b6020026020010151820191508080600101915050611884565b5060006118c283600088856125bb565b90506118cf83600061274e565b604080516001600160a01b038881168252602082018590528183018490529151918516917fbf96c70098f946bf86fd27e5bbc90e1e091403f5cb76e374f724cf62a0206a309181900360600190a260005b85518110156119fe5761196d86828151811061193857fe5b602002602001015186838151811061194c57fe5b6020026020010151896001600160a01b03166125099092919063ffffffff16565b866001600160a01b031686828151811061198357fe5b60200260200101516001600160a01b0316600080516020612cbf83398151915260018885815181106119b157fe5b6020908102919091018101516040805193845291830152600082820152519081900360600190a36119f68682815181106119e757fe5b6020026020010151600161274e565b600101611920565b50505050505050565b60075460009033903490811015611a65576040805162461bcd60e51b815260206004820152601a60248201527f6e6f7420656e6f75676820746f20726566756e64206c61746572000000000000604482015290519081900360640190fd5b6000611a7783600754340389896125bb565b90506000611a8884428a8a8a611488565b90506000600260008381526020019081526020016000209050848160000160006101000a8154816001600160a01b0302191690836001600160a01b031602179055508a8160010181905550898160020160006101000a81548160ff021916908360ff160217905550888160020160016101000a8154816001600160a01b0302191690836001600160a01b031602179055508781600301819055508681600401819055506007548160060181905550817f2d638dbd51a6defdca8b25f5337e68a1b6584b6a7809b7eaa1d6fb595971113f8a8a8e8b8860075460405180876001600160a01b03168152602001868152602001858152602001848152602001838152602001828152602001965050505050505060405180910390a2611bac85600061274e565b509998505050505050505050565b336000805b8451811015611bed57838181518110611bd457fe5b6020026020010151820191508080600101915050611bbf565b506000611bfd83346000856125bb565b9050611c0a83600061274e565b60408051600081526020810184905280820183905290516001600160a01b038516917fbf96c70098f946bf86fd27e5bbc90e1e091403f5cb76e374f724cf62a0206a30919081900360600190a260005b8551811015611d4657858181518110611c6f57fe5b60200260200101516001600160a01b03166108fc868381518110611c8f57fe5b60200260200101519081150290604051600060405180830381858888f19350505050158015611cc2573d6000803e3d6000fd5b5060006001600160a01b0316868281518110611cda57fe5b60200260200101516001600160a01b0316600080516020612cbf8339815191526001888581518110611d0857fe5b6020908102919091018101516040805193845291830152600082820152519081900360600190a3611d3e8682815181106119e757fe5b600101611c5a565b505050505050565b6000818152600260205260409020600481015460058201541480611d755750806001015442115b611db05760405162461bcd60e51b8152600401808060200182810382526029815260200180612bd76029913960400191505060405180910390fd5b6060816005015467ffffffffffffffff81118015611dcd57600080fd5b50604051908082528060200260200182016040528015611df7578160200160208202803683370190505b5090506060826005015467ffffffffffffffff81118015611e1757600080fd5b50604051908082528060200260200182016040528015611e41578160200160208202803683370190505b50600484015460038501546002860154929350909160ff1660011415611f145760008560040154866003015481611e7457fe5b0490508560050154866004015403925085600501548102866003015403915060005b8660050154811015611f0d57600081815260088801602052604090205486516001600160a01b0390911690879083908110611ecd57fe5b60200260200101906001600160a01b031690816001600160a01b03168152505081858281518110611efa57fe5b6020908102919091010152600101611e96565b5050612008565b600285015460ff16612008576000805b8660050154811015611f515760008181526008880160205260409020600190810154929092189101611f24565b5060005b866005015481101561200557600081815260088801602052604090205486516001600160a01b0390911690879083908110611f8c57fe5b6001600160a01b039092166020928302919091018201526000828152600889019091526040902060010154611fc490839085876115f7565b858281518110611fd057fe5b602002602001018181525050600184039350848181518110611fee57fe5b602090810291909101015190920391600101611f55565b50505b600280860154865460068089015460008b815260208690526040812080546001600160a01b03191681556001810182905595860180546001600160a81b031916905560038601819055600486018190556005860181905594909101939093556001600160a01b03610100909204821692911690826121ab5760005b875181101561216e5787818151811061209857fe5b60200260200101516001600160a01b03166108fc8883815181106120b857fe5b60200260200101519081150290604051600060405180830381858888f193505050501580156120eb573d6000803e3d6000fd5b50836001600160a01b031688828151811061210257fe5b60200260200101516001600160a01b0316600080516020612cbf83398151915260028a858151811061213057fe5b60209081029190910181015160408051938452918301528181018f9052519081900360600190a36121668882815181106119e757fe5b600101612083565b506040516001600160a01b0383169085156108fc029086906000818181858888f193505050501580156121a5573d6000803e3d6000fd5b50612309565b8260005b8851811015612283576121fc8982815181106121c757fe5b60200260200101518983815181106121db57fe5b6020026020010151846001600160a01b03166125099092919063ffffffff16565b846001600160a01b031689828151811061221257fe5b60200260200101516001600160a01b0316600080516020612cbf83398151915260028b858151811061224057fe5b60200260200101518f60405180848152602001838152602001828152602001935050505060405180910390a361227b8982815181106119e757fe5b6001016121af565b50806001600160a01b031663a9059cbb84876040518363ffffffff1660e01b815260040180836001600160a01b0316815260200182815260200192505050602060405180830381600087803b1580156122db57600080fd5b505af11580156122ef573d6000803e3d6000fd5b505050506040513d602081101561230557600080fd5b5050505b6040513390819083156108fc029084906000818181858888f19350505050158015612338573d6000803e3d6000fd5b50806001600160a01b03168a7f2d7e3b531df734e7853174a38701e99525a6e85a9833198543109ae83b1be9f08888604051808381526020018281526020019250505060405180910390a350505050505050505050565b604080516001600160a01b0383166020808301919091524282840152446060830152436080808401919091528351808403909101815260a09092019092528051910120919050565b6006546001600160a01b0316331461242b576040805162461bcd60e51b8152602060048201526012602482015271383934bb34b632b233b2b21030b1ba34b7b760711b604482015290519081900360640190fd5b6001600160a01b0381166124705760405162461bcd60e51b8152600401808060200182810382526022815260200180612c006022913960400191505060405180910390fd5b600880546001600160a01b038316600160201b8102640100000000600160c01b03199092169190911790915560408051918252517fb43a54cb7c4fdffa59c4df968b7081b9032c551d37d487662a5012a147673aaa9181900360200190a150565b600381815481106124de57fe5b6000918252602090912001546001600160a01b0316905081565b600061250330612861565b15905090565b604080516001600160a01b038416602482015260448082018490528251808303909101815260649091019091526020810180516001600160e01b031663a9059cbb60e01b179052610eaf908490612867565b604080516001600160a01b0380861660248301528416604482015260648082018490528251808303909101815260849091019091526020810180516001600160e01b03166323b872dd60e01b1790526125b5908590612867565b50505050565b60006125c6826116f9565b90506001600160a01b03831661265c5780820184146126165760405162461bcd60e51b8152600401808060200182810382526023815260200180612bb46023913960400191505060405180910390fd5b600854604051600160201b9091046001600160a01b0316906108fc8315029083906000818181858888f19350505050158015612656573d6000803e3d6000fd5b50611672565b808201836001600160a01b03166370a08231336040518263ffffffff1660e01b815260040180826001600160a01b0316815260200191505060206040518083038186803b1580156126ac57600080fd5b505afa1580156126c0573d6000803e3d6000fd5b505050506040513d60208110156126d657600080fd5b505110156127155760405162461bcd60e51b8152600401808060200182810382526025815260200180612c9a6025913960400191505060405180910390fd5b61272a6001600160a01b03841633308561255b565b600854611672906001600160a01b03858116913391600160201b909104168461255b565b60005b600354811015610eaf5760006003828154811061276a57fe5b60009182526020808320909101546001600160a01b03168083526004909152604082209092509060ff8516156127a45781600101546127a7565b81545b90506000811180156127d057506001600160a01b03831660009081526005602052604090205481105b15612856576001600160a01b0383166000818152600560205260409020805483900390556127ff908783612509565b826001600160a01b0316866001600160a01b03167f3447f133d6ab63eff2e7894407e65509c1b49bc9874da1f0b57b87f0a46b81008784604051808360ff1681526020018281526020019250505060405180910390a35b505050600101612751565b3b151590565b60606128bc826040518060400160405280602081526020017f5361666545524332303a206c6f772d6c6576656c2063616c6c206661696c6564815250856001600160a01b03166129189092919063ffffffff16565b805190915015610eaf578080602001905160208110156128db57600080fd5b5051610eaf5760405162461bcd60e51b815260040180806020018281038252602a815260200180612cdf602a913960400191505060405180910390fd5b60606129278484600085612931565b90505b9392505050565b6060824710156129725760405162461bcd60e51b8152600401808060200182810382526026815260200180612c226026913960400191505060405180910390fd5b61297b85612861565b6129cc576040805162461bcd60e51b815260206004820152601d60248201527f416464726573733a2063616c6c20746f206e6f6e2d636f6e7472616374000000604482015290519081900360640190fd5b60006060866001600160a01b031685876040518082805190602001908083835b60208310612a0b5780518252601f1990920191602091820191016129ec565b6001836020036101000a03801982511681845116808217855250505050505090500191505060006040518083038185875af1925050503d8060008114612a6d576040519150601f19603f3d011682016040523d82523d6000602084013e612a72565b606091505b5091509150612a82828286612a8d565b979650505050505050565b60608315612a9c57508161292a565b825115612aac5782518084602001fd5b8160405162461bcd60e51b81526004018080602001828103825283818151815260200191508051906020019080838360005b83811015612af6578181015183820152602001612ade565b50505050905090810190601f168015612b235780820380516001836020036101000a031916815260200191505b509250505060405180910390fd5b828054828255906000526020600020908101928215612b84579160200282015b82811115612b845781546001600160a01b0319166001600160a01b03843516178255602090920191600190910190612b51565b50612b90929150612b94565b5090565b5b80821115612b905780546001600160a01b0319168155600101612b9556fe696e636f727265637420616d6f756e74206f6620657468207472616e736665727265646c75636b794d6f6e6579206e6f742066756c6c7920636f6c6c6563746564206f7220657870697265646665652072656365697665722063616e2774206265207a65726f2061646472657373416464726573733a20696e73756666696369656e742062616c616e636520666f722063616c6c496e697469616c697a61626c653a20636f6e747261637420697320616c726561647920696e697469616c697a656472656d61696e20726577617264206e6f7420656e6f75676820746f207769746864726177696e636f727265637420616d6f756e74206f6620746f6b656e207472616e73666572726564d5d1517d3172e6ed7c29298d19597b618aed90ea4ea98ce064c5529845fbf70a5361666545524332303a204552433230206f7065726174696f6e20646964206e6f742073756363656564a264697066735822122002afdc0e68bf9b4c3d6b6c93740fa0b14313ad5cf4def7f244214da7ae8554a464736f6c634300060c0033",
  "bytecodeSha1": "64415b31a4dd3d84e35ab1170736c3c1832a319d",
  "compiler": {
    "evm_version": "istanbul",
    "optimizer": {
      "enabled": true,
      "runs": 200
    },
    "version": "0.6.12+commit.27d51765"
  },
  "contractName": "LuckyMoney",
  "language": "Solidity",
  "natspec": {
    "kind": "dev",
    "methods": {},
    "version": 1
  },
  "opcodes": "PUSH1 0x80 PUSH1 0x40 MSTORE PUSH1 0x4 CALLDATASIZE LT PUSH2 0x1F9 JUMPI PUSH1 0x0 CALLDATALOAD PUSH1 0xE0 SHR DUP1 PUSH4 0x9FEB8F50 GT PUSH2 0x10D JUMPI DUP1 PUSH4 0xBC5EFBDD GT PUSH2 0xA0 JUMPI DUP1 PUSH4 0xE63D38ED GT PUSH2 0x6F JUMPI DUP1 PUSH4 0xE63D38ED EQ PUSH2 0xBB4 JUMPI DUP1 PUSH4 0xEA40F8FE EQ PUSH2 0xCD7 JUMPI DUP1 PUSH4 0xEAF248FC EQ PUSH2 0xD01 JUMPI DUP1 PUSH4 0xEFDCD974 EQ PUSH2 0xD34 JUMPI DUP1 PUSH4 0xF301AF42 EQ PUSH2 0xD67 JUMPI PUSH2 0x1F9 JUMP JUMPDEST DUP1 PUSH4 0xBC5EFBDD EQ PUSH2 0x9CA JUMPI DUP1 PUSH4 0xC27AF08A EQ PUSH2 0x9F4 JUMPI DUP1 PUSH4 0xC73A2D60 EQ PUSH2 0xA33 JUMPI DUP1 PUSH4 0xE0083574 EQ PUSH2 0xB73 JUMPI PUSH2 0x1F9 JUMP JUMPDEST DUP1 PUSH4 0xAF9E3A36 GT PUSH2 0xDC JUMPI DUP1 PUSH4 0xAF9E3A36 EQ PUSH2 0x8DB JUMPI DUP1 PUSH4 0xB3F00674 EQ PUSH2 0x905 JUMPI DUP1 PUSH4 0xB48DBD50 EQ PUSH2 0x91A JUMPI DUP1 PUSH4 0xB498FA36 EQ PUSH2 0x9A0 JUMPI PUSH2 0x1F9 JUMP JUMPDEST DUP1 PUSH4 0x9FEB8F50 EQ PUSH2 0x77F JUMPI DUP1 PUSH4 0xA460FDDF EQ PUSH2 0x7B8 JUMPI DUP1 PUSH4 0xA7BB5803 EQ PUSH2 0x7F4 JUMPI DUP1 PUSH4 0xAD33513F EQ PUSH2 0x8C6 JUMPI PUSH2 0x1F9 JUMP JUMPDEST DUP1 PUSH4 0x7935034F GT PUSH2 0x190 JUMPI DUP1 PUSH4 0x93C8DC6D GT PUSH2 0x15F JUMPI DUP1 PUSH4 0x93C8DC6D EQ PUSH2 0x607 JUMPI DUP1 PUSH4 0x95E911A8 EQ PUSH2 0x63A JUMPI DUP1 PUSH4 0x978BBDB9 EQ PUSH2 0x666 JUMPI DUP1 PUSH4 0x97ABA7F9 EQ PUSH2 0x67B JUMPI DUP1 PUSH4 0x9C9FF363 EQ PUSH2 0x733 JUMPI PUSH2 0x1F9 JUMP JUMPDEST DUP1 PUSH4 0x7935034F EQ PUSH2 0x4A0 JUMPI DUP1 PUSH4 0x861B2CAF EQ PUSH2 0x4D9 JUMPI DUP1 PUSH4 0x8AC9AA00 EQ PUSH2 0x589 JUMPI DUP1 PUSH4 0x8DA5CB5B EQ PUSH2 0x5D6 JUMPI PUSH2 0x1F9 JUMP JUMPDEST DUP1 PUSH4 0x3D5376FA GT PUSH2 0x1CC JUMPI DUP1 PUSH4 0x3D5376FA EQ PUSH2 0x329 JUMPI DUP1 PUSH4 0x485CC955 EQ PUSH2 0x3E1 JUMPI DUP1 PUSH4 0x4A27FEFE EQ PUSH2 0x41C JUMPI DUP1 PUSH4 0x58D3232F EQ PUSH2 0x467 JUMPI PUSH2 0x1F9 JUMP JUMPDEST DUP1 PUSH4 0x13AF4035 EQ PUSH2 0x1FE JUMPI DUP1 PUSH4 0x201E81A8 EQ PUSH2 0x233 JUMPI DUP1 PUSH4 0x29FF0773 EQ PUSH2 0x2AE JUMPI DUP1 PUSH4 0x36875CCF EQ PUSH2 0x2DC JUMPI JUMPDEST PUSH1 0x0 DUP1 REVERT JUMPDEST CALLVALUE DUP1 ISZERO PUSH2 0x20A JUMPI PUSH1 0x0 DUP1 REVERT JUMPDEST POP PUSH2 0x231 PUSH1 0x4 DUP1 CALLDATASIZE SUB PUSH1 0x20 DUP2 LT ISZERO PUSH2 0x221 JUMPI PUSH1 0x0 DUP1 REVERT JUMPDEST POP CALLDATALOAD PUSH1 0x1 PUSH1 0x1 PUSH1 0xA0 SHL SUB AND PUSH2 0xD91 JUMP JUMPDEST STOP JUMPDEST CALLVALUE DUP1 ISZERO PUSH2 0x23F JUMPI PUSH1 0x0 DUP1 REVERT JUMPDEST POP PUSH2 0x231 PUSH1 0x4 DUP1 CALLDATASIZE SUB PUSH1 0x20 DUP2 LT ISZERO PUSH2 0x256 JUMPI PUSH1 0x0 DUP1 REVERT JUMPDEST DUP2 ADD SWAP1 PUSH1 0x20 DUP2 ADD DUP2 CALLDATALOAD PUSH1 0x1 PUSH1 0x20 SHL DUP2 GT ISZERO PUSH2 0x270 JUMPI PUSH1 0x0 DUP1 REVERT JUMPDEST DUP3 ADD DUP4 PUSH1 0x20 DUP3 ADD GT ISZERO PUSH2 0x282 JUMPI PUSH1 0x0 DUP1 REVERT JUMPDEST DUP1 CALLDATALOAD SWAP1 PUSH1 0x20 ADD SWAP2 DUP5 PUSH1 0x20 DUP4 MUL DUP5 ADD GT PUSH1 0x1 PUSH1 0x20 SHL DUP4 GT OR ISZERO PUSH2 0x2A3 JUMPI PUSH1 0x0 DUP1 REVERT JUMPDEST POP SWAP1 SWAP3 POP SWAP1 POP PUSH2 0xE4F JUMP JUMPDEST CALLVALUE DUP1 ISZERO PUSH2 0x2BA JUMPI PUSH1 0x0 DUP1 REVERT JUMPDEST POP PUSH2 0x231 PUSH1 0x4 DUP1 CALLDATASIZE SUB PUSH1 0x20 DUP2 LT ISZERO PUSH2 0x2D1 JUMPI PUSH1 0x0 DUP1 REVERT JUMPDEST POP CALLDATALOAD PUSH2 0xFFFF AND PUSH2 0xEB4 JUMP JUMPDEST CALLVALUE DUP1 ISZERO PUSH2 0x2E8 JUMPI PUSH1 0x0 DUP1 REVERT JUMPDEST POP PUSH2 0x315 PUSH1 0x4 DUP1 CALLDATASIZE SUB PUSH1 0x40 DUP2 LT ISZERO PUSH2 0x2FF JUMPI PUSH1 0x0 DUP1 REVERT JUMPDEST POP DUP1 CALLDATALOAD SWAP1 PUSH1 0x20 ADD CALLDATALOAD PUSH1 0x1 PUSH1 0x1 PUSH1 0xA0 SHL SUB AND PUSH2 0xFAD JUMP JUMPDEST PUSH1 0x40 DUP1 MLOAD SWAP2 ISZERO ISZERO DUP3 MSTORE MLOAD SWAP1 DUP2 SWAP1 SUB PUSH1 0x20 ADD SWAP1 RETURN JUMPDEST CALLVALUE DUP1 ISZERO PUSH2 0x335 JUMPI PUSH1 0x0 DUP1 REVERT JUMPDEST POP PUSH2 0x231 PUSH1 0x4 DUP1 CALLDATASIZE SUB PUSH1 0x40 DUP2 LT ISZERO PUSH2 0x34C JUMPI PUSH1 0x0 DUP1 REVERT JUMPDEST DUP2 CALLDATALOAD SWAP2 SWAP1 DUP2 ADD SWAP1 PUSH1 0x40 DUP2 ADD PUSH1 0x20 DUP3 ADD CALLDATALOAD PUSH1 0x1 PUSH1 0x20 SHL DUP2 GT ISZERO PUSH2 0x36D JUMPI PUSH1 0x0 DUP1 REVERT JUMPDEST DUP3 ADD DUP4 PUSH1 0x20 DUP3 ADD GT ISZERO PUSH2 0x37F JUMPI PUSH1 0x0 DUP1 REVERT JUMPDEST DUP1 CALLDATALOAD SWAP1 PUSH1 0x20 ADD SWAP2 DUP5 PUSH1 0x1 DUP4 MUL DUP5 ADD GT PUSH1 0x1 PUSH1 0x20 SHL DUP4 GT OR ISZERO PUSH2 0x3A0 JUMPI PUSH1 0x0 DUP1 REVERT JUMPDEST SWAP2 SWAP1 DUP1 DUP1 PUSH1 0x1F ADD PUSH1 0x20 DUP1 SWAP2 DIV MUL PUSH1 0x20 ADD PUSH1 0x40 MLOAD SWAP1 DUP2 ADD PUSH1 0x40 MSTORE DUP1 SWAP4 SWAP3 SWAP2 SWAP1 DUP2 DUP2 MSTORE PUSH1 0x20 ADD DUP4 DUP4 DUP1 DUP3 DUP5 CALLDATACOPY PUSH1 0x0 SWAP3 ADD SWAP2 SWAP1 SWAP2 MSTORE POP SWAP3 SWAP6 POP PUSH2 0xFDC SWAP5 POP POP POP POP POP JUMP JUMPDEST CALLVALUE DUP1 ISZERO PUSH2 0x3ED JUMPI PUSH1 0x0 DUP1 REVERT JUMPDEST POP PUSH2 0x231 PUSH1 0x4 DUP1 CALLDATASIZE SUB PUSH1 0x40 DUP2 LT ISZERO PUSH2 0x404 JUMPI PUSH1 0x0 DUP1 REVERT JUMPDEST POP PUSH1 0x1 PUSH1 0x1 PUSH1 0xA0 SHL SUB DUP2 CALLDATALOAD DUP2 AND SWAP2 PUSH1 0x20 ADD CALLDATALOAD AND PUSH2 0x119D JUMP JUMPDEST CALLVALUE DUP1 ISZERO PUSH2 0x428 JUMPI PUSH1 0x0 DUP1 REVERT JUMPDEST POP PUSH2 0x455 PUSH1 0x4 DUP1 CALLDATASIZE SUB PUSH1 0x40 DUP2 LT ISZERO PUSH2 0x43F JUMPI PUSH1 0x0 DUP1 REVERT JUMPDEST POP DUP1 CALLDATALOAD SWAP1 PUSH1 0x20 ADD CALLDATALOAD PUSH1 0x1 PUSH1 0x1 PUSH1 0xA0 SHL SUB AND PUSH2 0x12A9 JUMP JUMPDEST PUSH1 0x40 DUP1 MLOAD SWAP2 DUP3 MSTORE MLOAD SWAP1 DUP2 SWAP1 SUB PUSH1 0x20 ADD SWAP1 RETURN JUMPDEST CALLVALUE DUP1 ISZERO PUSH2 0x473 JUMPI PUSH1 0x0 DUP1 REVERT JUMPDEST POP PUSH2 0x231 PUSH1 0x4 DUP1 CALLDATASIZE SUB PUSH1 0x40 DUP2 LT ISZERO PUSH2 0x48A JUMPI PUSH1 0x0 DUP1 REVERT JUMPDEST POP PUSH1 0x1 PUSH1 0x1 PUSH1 0xA0 SHL SUB DUP2 CALLDATALOAD AND SWAP1 PUSH1 0x20 ADD CALLDATALOAD PUSH2 0x1310 JUMP JUMPDEST CALLVALUE DUP1 ISZERO PUSH2 0x4AC JUMPI PUSH1 0x0 DUP1 REVERT JUMPDEST POP PUSH2 0x455 PUSH1 0x4 DUP1 CALLDATASIZE SUB PUSH1 0x40 DUP2 LT ISZERO PUSH2 0x4C3 JUMPI PUSH1 0x0 DUP1 REVERT JUMPDEST POP DUP1 CALLDATALOAD SWAP1 PUSH1 0x20 ADD CALLDATALOAD PUSH1 0x1 PUSH1 0x1 PUSH1 0xA0 SHL SUB AND PUSH2 0x13F8 JUMP JUMPDEST CALLVALUE DUP1 ISZERO PUSH2 0x4E5 JUMPI PUSH1 0x0 DUP1 REVERT JUMPDEST POP PUSH2 0x514 PUSH1 0x4 DUP1 CALLDATASIZE SUB PUSH1 0x40 DUP2 LT ISZERO PUSH2 0x4FC JUMPI PUSH1 0x0 DUP1 REVERT JUMPDEST POP PUSH1 0x1 PUSH1 0x1 PUSH1 0xA0 SHL SUB DUP2 CALLDATALOAD DUP2 AND SWAP2 PUSH1 0x20 ADD CALLDATALOAD AND PUSH2 0x1437 JUMP JUMPDEST PUSH1 0x40 DUP1 MLOAD PUSH1 0x20 DUP1 DUP3 MSTORE DUP4 MLOAD DUP2 DUP4 ADD MSTORE DUP4 MLOAD SWAP2 SWAP3 DUP4 SWAP3 SWAP1 DUP4 ADD SWAP2 DUP6 ADD SWAP1 DUP1 DUP4 DUP4 PUSH1 0x0 JUMPDEST DUP4 DUP2 LT ISZERO PUSH2 0x54E JUMPI DUP2 DUP2 ADD MLOAD DUP4 DUP3 ADD MSTORE PUSH1 0x20 ADD PUSH2 0x536 JUMP JUMPDEST POP POP POP POP SWAP1 POP SWAP1 DUP2 ADD SWAP1 PUSH1 0x1F AND DUP1 ISZERO PUSH2 0x57B JUMPI DUP1 DUP3 SUB DUP1 MLOAD PUSH1 0x1 DUP4 PUSH1 0x20 SUB PUSH2 0x100 EXP SUB NOT AND DUP2 MSTORE PUSH1 0x20 ADD SWAP2 POP JUMPDEST POP SWAP3 POP POP POP PUSH1 0x40 MLOAD DUP1 SWAP2 SUB SWAP1 RETURN JUMPDEST CALLVALUE DUP1 ISZERO PUSH2 0x595 JUMPI PUSH1 0x0 DUP1 REVERT JUMPDEST POP PUSH2 0x455 PUSH1 0x4 DUP1 CALLDATASIZE SUB PUSH1 0xA0 DUP2 LT ISZERO PUSH2 0x5AC JUMPI PUSH1 0x0 DUP1 REVERT JUMPDEST POP PUSH1 0x1 PUSH1 0x1 PUSH1 0xA0 SHL SUB DUP2 CALLDATALOAD DUP2 AND SWAP2 PUSH1 0x20 DUP2 ADD CALLDATALOAD SWAP2 PUSH1 0x40 DUP3 ADD CALLDATALOAD AND SWAP1 PUSH1 0x60 DUP2 ADD CALLDATALOAD SWAP1 PUSH1 0x80 ADD CALLDATALOAD PUSH2 0x1488 JUMP JUMPDEST CALLVALUE DUP1 ISZERO PUSH2 0x5E2 JUMPI PUSH1 0x0 DUP1 REVERT JUMPDEST POP PUSH2 0x5EB PUSH2 0x14E8 JUMP JUMPDEST PUSH1 0x40 DUP1 MLOAD PUSH1 0x1 PUSH1 0x1 PUSH1 0xA0 SHL SUB SWAP1 SWAP3 AND DUP3 MSTORE MLOAD SWAP1 DUP2 SWAP1 SUB PUSH1 0x20 ADD SWAP1 RETURN JUMPDEST CALLVALUE DUP1 ISZERO PUSH2 0x613 JUMPI PUSH1 0x0 DUP1 REVERT JUMPDEST POP PUSH2 0x455 PUSH1 0x4 DUP1 CALLDATASIZE SUB PUSH1 0x20 DUP2 LT ISZERO PUSH2 0x62A JUMPI PUSH1 0x0 DUP1 REVERT JUMPDEST POP CALLDATALOAD PUSH1 0x1 PUSH1 0x1 PUSH1 0xA0 SHL SUB AND PUSH2 0x14F7 JUMP JUMPDEST CALLVALUE DUP1 ISZERO PUSH2 0x646 JUMPI PUSH1 0x0 DUP1 REVERT JUMPDEST POP PUSH2 0x64F PUSH2 0x1509 JUMP JUMPDEST PUSH1 0x40 DUP1 MLOAD PUSH2 0xFFFF SWAP1 SWAP3 AND DUP3 MSTORE MLOAD SWAP1 DUP2 SWAP1 SUB PUSH1 0x20 ADD SWAP1 RETURN JUMPDEST CALLVALUE DUP1 ISZERO PUSH2 0x672 JUMPI PUSH1 0x0 DUP1 REVERT JUMPDEST POP PUSH2 0x64F PUSH2 0x1519 JUMP JUMPDEST CALLVALUE DUP1 ISZERO PUSH2 0x687 JUMPI PUSH1 0x0 DUP1 REVERT JUMPDEST POP PUSH2 0x5EB PUSH1 0x4 DUP1 CALLDATASIZE SUB PUSH1 0x40 DUP2 LT ISZERO PUSH2 0x69E JUMPI PUSH1 0x0 DUP1 REVERT JUMPDEST DUP2 CALLDATALOAD SWAP2 SWAP1 DUP2 ADD SWAP1 PUSH1 0x40 DUP2 ADD PUSH1 0x20 DUP3 ADD CALLDATALOAD PUSH1 0x1 PUSH1 0x20 SHL DUP2 GT ISZERO PUSH2 0x6BF JUMPI PUSH1 0x0 DUP1 REVERT JUMPDEST DUP3 ADD DUP4 PUSH1 0x20 DUP3 ADD GT ISZERO PUSH2 0x6D1 JUMPI PUSH1 0x0 DUP1 REVERT JUMPDEST DUP1 CALLDATALOAD SWAP1 PUSH1 0x20 ADD SWAP2 DUP5 PUSH1 0x1 DUP4 MUL DUP5 ADD GT PUSH1 0x1 PUSH1 0x20 SHL DUP4 GT OR ISZERO PUSH2 0x6F2 JUMPI PUSH1 0x0 DUP1 REVERT JUMPDEST SWAP2 SWAP1 DUP1 DUP1 PUSH1 0x1F ADD PUSH1 0x20 DUP1 SWAP2 DIV MUL PUSH1 0x20 ADD PUSH1 0x40 MLOAD SWAP1 DUP2 ADD PUSH1 0x40 MSTORE DUP1 SWAP4 SWAP3 SWAP2 SWAP1 DUP2 DUP2 MSTORE PUSH1 0x20 ADD DUP4 DUP4 DUP1 DUP3 DUP5 CALLDATACOPY PUSH1 0x0 SWAP3 ADD SWAP2 SWAP1 SWAP2 MSTORE POP SWAP3 SWAP6 POP PUSH2 0x1523 SWAP5 POP POP POP POP POP JUMP JUMPDEST CALLVALUE DUP1 ISZERO PUSH2 0x73F JUMPI PUSH1 0x0 DUP1 REVERT JUMPDEST POP PUSH2 0x766 PUSH1 0x4 DUP1 CALLDATASIZE SUB PUSH1 0x20 DUP2 LT ISZERO PUSH2 0x756 JUMPI PUSH1 0x0 DUP1 REVERT JUMPDEST POP CALLDATALOAD PUSH1 0x1 PUSH1 0x1 PUSH1 0xA0 SHL SUB AND PUSH2 0x15A7 JUMP JUMPDEST PUSH1 0x40 DUP1 MLOAD SWAP3 DUP4 MSTORE PUSH1 0x20 DUP4 ADD SWAP2 SWAP1 SWAP2 MSTORE DUP1 MLOAD SWAP2 DUP3 SWAP1 SUB ADD SWAP1 RETURN JUMPDEST CALLVALUE DUP1 ISZERO PUSH2 0x78B JUMPI PUSH1 0x0 DUP1 REVERT JUMPDEST POP PUSH2 0x231 PUSH1 0x4 DUP1 CALLDATASIZE SUB PUSH1 0x40 DUP2 LT ISZERO PUSH2 0x7A2 JUMPI PUSH1 0x0 DUP1 REVERT JUMPDEST POP PUSH1 0x1 PUSH1 0x1 PUSH1 0xA0 SHL SUB DUP2 CALLDATALOAD AND SWAP1 PUSH1 0x20 ADD CALLDATALOAD PUSH2 0x15C0 JUMP JUMPDEST CALLVALUE DUP1 ISZERO PUSH2 0x7C4 JUMPI PUSH1 0x0 DUP1 REVERT JUMPDEST POP PUSH2 0x455 PUSH1 0x4 DUP1 CALLDATASIZE SUB PUSH1 0x80 DUP2 LT ISZERO PUSH2 0x7DB JUMPI PUSH1 0x0 DUP1 REVERT JUMPDEST POP DUP1 CALLDATALOAD SWAP1 PUSH1 0x20 DUP2 ADD CALLDATALOAD SWAP1 PUSH1 0x40 DUP2 ADD CALLDATALOAD SWAP1 PUSH1 0x60 ADD CALLDATALOAD PUSH2 0x15F7 JUMP JUMPDEST CALLVALUE DUP1 ISZERO PUSH2 0x800 JUMPI PUSH1 0x0 DUP1 REVERT JUMPDEST POP PUSH2 0x8A5 PUSH1 0x4 DUP1 CALLDATASIZE SUB PUSH1 0x20 DUP2 LT ISZERO PUSH2 0x817 JUMPI PUSH1 0x0 DUP1 REVERT JUMPDEST DUP2 ADD SWAP1 PUSH1 0x20 DUP2 ADD DUP2 CALLDATALOAD PUSH1 0x1 PUSH1 0x20 SHL DUP2 GT ISZERO PUSH2 0x831 JUMPI PUSH1 0x0 DUP1 REVERT JUMPDEST DUP3 ADD DUP4 PUSH1 0x20 DUP3 ADD GT ISZERO PUSH2 0x843 JUMPI PUSH1 0x0 DUP1 REVERT JUMPDEST DUP1 CALLDATALOAD SWAP1 PUSH1 0x20 ADD SWAP2 DUP5 PUSH1 0x1 DUP4 MUL DUP5 ADD GT PUSH1 0x1 PUSH1 0x20 SHL DUP4 GT OR ISZERO PUSH2 0x864 JUMPI PUSH1 0x0 DUP1 REVERT JUMPDEST SWAP2 SWAP1 DUP1 DUP1 PUSH1 0x1F ADD PUSH1 0x20 DUP1 SWAP2 DIV MUL PUSH1 0x20 ADD PUSH1 0x40 MLOAD SWAP1 DUP2 ADD PUSH1 0x40 MSTORE DUP1 SWAP4 SWAP3 SWAP2 SWAP1 DUP2 DUP2 MSTORE PUSH1 0x20 ADD DUP4 DUP4 DUP1 DUP3 DUP5 CALLDATACOPY PUSH1 0x0 SWAP3 ADD SWAP2 SWAP1 SWAP2 MSTORE POP SWAP3 SWAP6 POP PUSH2 0x167A SWAP5 POP POP POP POP POP JUMP JUMPDEST PUSH1 0x40 DUP1 MLOAD SWAP4 DUP5 MSTORE PUSH1 0x20 DUP5 ADD SWAP3 SWAP1 SWAP3 MSTORE PUSH1 0xFF AND DUP3 DUP3 ADD MSTORE MLOAD SWAP1 DUP2 SWAP1 SUB PUSH1 0x60 ADD SWAP1 RETURN JUMPDEST CALLVALUE DUP1 ISZERO PUSH2 0x8D2 JUMPI PUSH1 0x0 DUP1 REVERT JUMPDEST POP PUSH2 0x455 PUSH2 0x16F3 JUMP JUMPDEST CALLVALUE DUP1 ISZERO PUSH2 0x8E7 JUMPI PUSH1 0x0 DUP1 REVERT JUMPDEST POP PUSH2 0x455 PUSH1 0x4 DUP1 CALLDATASIZE SUB PUSH1 0x20 DUP2 LT ISZERO PUSH2 0x8FE JUMPI PUSH1 0x0 DUP1 REVERT JUMPDEST POP CALLDATALOAD PUSH2 0x16F9 JUMP JUMPDEST CALLVALUE DUP1 ISZERO PUSH2 0x911 JUMPI PUSH1 0x0 DUP1 REVERT JUMPDEST POP PUSH2 0x5EB PUSH2 0x171C JUMP JUMPDEST CALLVALUE DUP1 ISZERO PUSH2 0x926 JUMPI PUSH1 0x0 DUP1 REVERT JUMPDEST POP PUSH2 0x944 PUSH1 0x4 DUP1 CALLDATASIZE SUB PUSH1 0x20 DUP2 LT ISZERO PUSH2 0x93D JUMPI PUSH1 0x0 DUP1 REVERT JUMPDEST POP CALLDATALOAD PUSH2 0x1732 JUMP JUMPDEST PUSH1 0x40 MLOAD DUP1 DUP10 PUSH1 0x1 PUSH1 0x1 PUSH1 0xA0 SHL SUB AND DUP2 MSTORE PUSH1 0x20 ADD DUP9 DUP2 MSTORE PUSH1 0x20 ADD DUP8 PUSH1 0xFF AND DUP2 MSTORE PUSH1 0x20 ADD DUP7 PUSH1 0x1 PUSH1 0x1 PUSH1 0xA0 SHL SUB AND DUP2 MSTORE PUSH1 0x20 ADD DUP6 DUP2 MSTORE PUSH1 0x20 ADD DUP5 DUP2 MSTORE PUSH1 0x20 ADD DUP4 DUP2 MSTORE PUSH1 0x20 ADD DUP3 DUP2 MSTORE PUSH1 0x20 ADD SWAP9 POP POP POP POP POP POP POP POP POP PUSH1 0x40 MLOAD DUP1 SWAP2 SUB SWAP1 RETURN JUMPDEST CALLVALUE DUP1 ISZERO PUSH2 0x9AC JUMPI PUSH1 0x0 DUP1 REVERT JUMPDEST POP PUSH2 0x455 PUSH1 0x4 DUP1 CALLDATASIZE SUB PUSH1 0x20 DUP2 LT ISZERO PUSH2 0x9C3 JUMPI PUSH1 0x0 DUP1 REVERT JUMPDEST POP CALLDATALOAD PUSH2 0x1783 JUMP JUMPDEST CALLVALUE DUP1 ISZERO PUSH2 0x9D6 JUMPI PUSH1 0x0 DUP1 REVERT JUMPDEST POP PUSH2 0x231 PUSH1 0x4 DUP1 CALLDATASIZE SUB PUSH1 0x20 DUP2 LT ISZERO PUSH2 0x9ED JUMPI PUSH1 0x0 DUP1 REVERT JUMPDEST POP CALLDATALOAD PUSH2 0x1798 JUMP JUMPDEST CALLVALUE DUP1 ISZERO PUSH2 0xA00 JUMPI PUSH1 0x0 DUP1 REVERT JUMPDEST POP PUSH2 0x231 PUSH1 0x4 DUP1 CALLDATASIZE SUB PUSH1 0x60 DUP2 LT ISZERO PUSH2 0xA17 JUMPI PUSH1 0x0 DUP1 REVERT JUMPDEST POP PUSH1 0x1 PUSH1 0x1 PUSH1 0xA0 SHL SUB DUP2 CALLDATALOAD AND SWAP1 PUSH1 0x20 DUP2 ADD CALLDATALOAD SWAP1 PUSH1 0x40 ADD CALLDATALOAD PUSH2 0x17F1 JUMP JUMPDEST CALLVALUE DUP1 ISZERO PUSH2 0xA3F JUMPI PUSH1 0x0 DUP1 REVERT JUMPDEST POP PUSH2 0x231 PUSH1 0x4 DUP1 CALLDATASIZE SUB PUSH1 0x60 DUP2 LT ISZERO PUSH2 0xA56 JUMPI PUSH1 0x0 DUP1 REVERT JUMPDEST PUSH1 0x1 PUSH1 0x1 PUSH1 0xA0 SHL SUB DUP3 CALLDATALOAD AND SWAP2 SWAP1 DUP2 ADD SWAP1 PUSH1 0x40 DUP2 ADD PUSH1 0x20 DUP3 ADD CALLDATALOAD PUSH1 0x1 PUSH1 0x20 SHL DUP2 GT ISZERO PUSH2 0xA80 JUMPI PUSH1 0x0 DUP1 REVERT JUMPDEST DUP3 ADD DUP4 PUSH1 0x20 DUP3 ADD GT ISZERO PUSH2 0xA92 JUMPI PUSH1 0x0 DUP1 REVERT JUMPDEST DUP1 CALLDATALOAD SWAP1 PUSH1 0x20 ADD SWAP2 DUP5 PUSH1 0x20 DUP4 MUL DUP5 ADD GT PUSH1 0x1 PUSH1 0x20 SHL DUP4 GT OR ISZERO PUSH2 0xAB3 JUMPI PUSH1 0x0 DUP1 REVERT JUMPDEST SWAP2 SWAP1 DUP1 DUP1 PUSH1 0x20 MUL PUSH1 0x20 ADD PUSH1 0x40 MLOAD SWAP1 DUP2 ADD PUSH1 0x40 MSTORE DUP1 SWAP4 SWAP3 SWAP2 SWAP1 DUP2 DUP2 MSTORE PUSH1 0x20 ADD DUP4 DUP4 PUSH1 0x20 MUL DUP1 DUP3 DUP5 CALLDATACOPY PUSH1 0x0 SWAP3 ADD SWAP2 SWAP1 SWAP2 MSTORE POP SWAP3 SWAP6 SWAP5 SWAP4 PUSH1 0x20 DUP2 ADD SWAP4 POP CALLDATALOAD SWAP2 POP POP PUSH1 0x1 PUSH1 0x20 SHL DUP2 GT ISZERO PUSH2 0xB02 JUMPI PUSH1 0x0 DUP1 REVERT JUMPDEST DUP3 ADD DUP4 PUSH1 0x20 DUP3 ADD GT ISZERO PUSH2 0xB14 JUMPI PUSH1 0x0 DUP1 REVERT JUMPDEST DUP1 CALLDATALOAD SWAP1 PUSH1 0x20 ADD SWAP2 DUP5 PUSH1 0x20 DUP4 MUL DUP5 ADD GT PUSH1 0x1 PUSH1 0x20 SHL DUP4 GT OR ISZERO PUSH2 0xB35 JUMPI PUSH1 0x0 DUP1 REVERT JUMPDEST SWAP2 SWAP1 DUP1 DUP1 PUSH1 0x20 MUL PUSH1 0x20 ADD PUSH1 0x40 MLOAD SWAP1 DUP2 ADD PUSH1 0x40 MSTORE DUP1 SWAP4 SWAP3 SWAP2 SWAP1 DUP2 DUP2 MSTORE PUSH1 0x20 ADD DUP4 DUP4 PUSH1 0x20 MUL DUP1 DUP3 DUP5 CALLDATACOPY PUSH1 0x0 SWAP3 ADD SWAP2 SWAP1 SWAP2 MSTORE POP SWAP3 SWAP6 POP PUSH2 0x187F SWAP5 POP POP POP POP POP JUMP JUMPDEST PUSH2 0x455 PUSH1 0x4 DUP1 CALLDATASIZE SUB PUSH1 0xA0 DUP2 LT ISZERO PUSH2 0xB89 JUMPI PUSH1 0x0 DUP1 REVERT JUMPDEST POP DUP1 CALLDATALOAD SWAP1 PUSH1 0xFF PUSH1 0x20 DUP3 ADD CALLDATALOAD AND SWAP1 PUSH1 0x1 PUSH1 0x1 PUSH1 0xA0 SHL SUB PUSH1 0x40 DUP3 ADD CALLDATALOAD AND SWAP1 PUSH1 0x60 DUP2 ADD CALLDATALOAD SWAP1 PUSH1 0x80 ADD CALLDATALOAD PUSH2 0x1A07 JUMP JUMPDEST PUSH2 0x231 PUSH1 0x4 DUP1 CALLDATASIZE SUB PUSH1 0x40 DUP2 LT ISZERO PUSH2 0xBCA JUMPI PUSH1 0x0 DUP1 REVERT JUMPDEST DUP2 ADD SWAP1 PUSH1 0x20 DUP2 ADD DUP2 CALLDATALOAD PUSH1 0x1 PUSH1 0x20 SHL DUP2 GT ISZERO PUSH2 0xBE4 JUMPI PUSH1 0x0 DUP1 REVERT JUMPDEST DUP3 ADD DUP4 PUSH1 0x20 DUP3 ADD GT ISZERO PUSH2 0xBF6 JUMPI PUSH1 0x0 DUP1 REVERT JUMPDEST DUP1 CALLDATALOAD SWAP1 PUSH1 0x20 ADD SWAP2 DUP5 PUSH1 0x20 DUP4 MUL DUP5 ADD GT PUSH1 0x1 PUSH1 0x20 SHL DUP4 GT OR ISZERO PUSH2 0xC17 JUMPI PUSH1 0x0 DUP1 REVERT JUMPDEST SWAP2 SWAP1 DUP1 DUP1 PUSH1 0x20 MUL PUSH1 0x20 ADD PUSH1 0x40 MLOAD SWAP1 DUP2 ADD PUSH1 0x40 MSTORE DUP1 SWAP4 SWAP3 SWAP2 SWAP1 DUP2 DUP2 MSTORE PUSH1 0x20 ADD DUP4 DUP4 PUSH1 0x20 MUL DUP1 DUP3 DUP5 CALLDATACOPY PUSH1 0x0 SWAP3 ADD SWAP2 SWAP1 SWAP2 MSTORE POP SWAP3 SWAP6 SWAP5 SWAP4 PUSH1 0x20 DUP2 ADD SWAP4 POP CALLDATALOAD SWAP2 POP POP PUSH1 0x1 PUSH1 0x20 SHL DUP2 GT ISZERO PUSH2 0xC66 JUMPI PUSH1 0x0 DUP1 REVERT JUMPDEST DUP3 ADD DUP4 PUSH1 0x20 DUP3 ADD GT ISZERO PUSH2 0xC78 JUMPI PUSH1 0x0 DUP1 REVERT JUMPDEST DUP1 CALLDATALOAD SWAP1 PUSH1 0x20 ADD SWAP2 DUP5 PUSH1 0x20 DUP4 MUL DUP5 ADD GT PUSH1 0x1 PUSH1 0x20 SHL DUP4 GT OR ISZERO PUSH2 0xC99 JUMPI PUSH1 0x0 DUP1 REVERT JUMPDEST SWAP2 SWAP1 DUP1 DUP1 PUSH1 0x20 MUL PUSH1 0x20 ADD PUSH1 0x40 MLOAD SWAP1 DUP2 ADD PUSH1 0x40 MSTORE DUP1 SWAP4 SWAP3 SWAP2 SWAP1 DUP2 DUP2 MSTORE PUSH1 0x20 ADD DUP4 DUP4 PUSH1 0x20 MUL DUP1 DUP3 DUP5 CALLDATACOPY PUSH1 0x0 SWAP3 ADD SWAP2 SWAP1 SWAP2 MSTORE POP SWAP3 SWAP6 POP PUSH2 0x1BBA SWAP5 POP POP POP POP POP JUMP JUMPDEST CALLVALUE DUP1 ISZERO PUSH2 0xCE3 JUMPI PUSH1 0x0 DUP1 REVERT JUMPDEST POP PUSH2 0x231 PUSH1 0x4 DUP1 CALLDATASIZE SUB PUSH1 0x20 DUP2 LT ISZERO PUSH2 0xCFA JUMPI PUSH1 0x0 DUP1 REVERT JUMPDEST POP CALLDATALOAD PUSH2 0x1D4E JUMP JUMPDEST CALLVALUE DUP1 ISZERO PUSH2 0xD0D JUMPI PUSH1 0x0 DUP1 REVERT JUMPDEST POP PUSH2 0x455 PUSH1 0x4 DUP1 CALLDATASIZE SUB PUSH1 0x20 DUP2 LT ISZERO PUSH2 0xD24 JUMPI PUSH1 0x0 DUP1 REVERT JUMPDEST POP CALLDATALOAD PUSH1 0x1 PUSH1 0x1 PUSH1 0xA0 SHL SUB AND PUSH2 0x238F JUMP JUMPDEST CALLVALUE DUP1 ISZERO PUSH2 0xD40 JUMPI PUSH1 0x0 DUP1 REVERT JUMPDEST POP PUSH2 0x231 PUSH1 0x4 DUP1 CALLDATASIZE SUB PUSH1 0x20 DUP2 LT ISZERO PUSH2 0xD57 JUMPI PUSH1 0x0 DUP1 REVERT JUMPDEST POP CALLDATALOAD PUSH1 0x1 PUSH1 0x1 PUSH1 0xA0 SHL SUB AND PUSH2 0x23D7 JUMP JUMPDEST CALLVALUE DUP1 ISZERO PUSH2 0xD73 JUMPI PUSH1 0x0 DUP1 REVERT JUMPDEST POP PUSH2 0x5EB PUSH1 0x4 DUP1 CALLDATASIZE SUB PUSH1 0x20 DUP2 LT ISZERO PUSH2 0xD8A JUMPI PUSH1 0x0 DUP1 REVERT JUMPDEST POP CALLDATALOAD PUSH2 0x24D1 JUMP JUMPDEST PUSH1 0x6 SLOAD PUSH1 0x1 PUSH1 0x1 PUSH1 0xA0 SHL SUB AND CALLER EQ PUSH2 0xDE5 JUMPI PUSH1 0x40 DUP1 MLOAD PUSH3 0x461BCD PUSH1 0xE5 SHL DUP2 MSTORE PUSH1 0x20 PUSH1 0x4 DUP3 ADD MSTORE PUSH1 0x12 PUSH1 0x24 DUP3 ADD MSTORE PUSH18 0x383934BB34B632B233B2B21030B1BA34B7B7 PUSH1 0x71 SHL PUSH1 0x44 DUP3 ADD MSTORE SWAP1 MLOAD SWAP1 DUP2 SWAP1 SUB PUSH1 0x64 ADD SWAP1 REVERT JUMPDEST PUSH1 0x6 SLOAD PUSH1 0x40 DUP1 MLOAD PUSH1 0x1 PUSH1 0x1 PUSH1 0xA0 SHL SUB SWAP3 DUP4 AND DUP2 MSTORE SWAP2 DUP4 AND PUSH1 0x20 DUP4 ADD MSTORE DUP1 MLOAD PUSH32 0xE366B15BFD568800B5088FAECF86F28B1E3EA0720E3D6BF79C7BDB105AB96652 SWAP3 DUP2 SWAP1 SUB SWAP1 SWAP2 ADD SWAP1 LOG1 PUSH1 0x6 DUP1 SLOAD PUSH1 0x1 PUSH1 0x1 PUSH1 0xA0 SHL SUB NOT AND PUSH1 0x1 PUSH1 0x1 PUSH1 0xA0 SHL SUB SWAP3 SWAP1 SWAP3 AND SWAP2 SWAP1 SWAP2 OR SWAP1 SSTORE JUMP JUMPDEST PUSH1 0x6 SLOAD PUSH1 0x1 PUSH1 0x1 PUSH1 0xA0 SHL SUB AND CALLER EQ PUSH2 0xEA3 JUMPI PUSH1 0x40 DUP1 MLOAD PUSH3 0x461BCD PUSH1 0xE5 SHL DUP2 MSTORE PUSH1 0x20 PUSH1 0x4 DUP3 ADD MSTORE PUSH1 0x12 PUSH1 0x24 DUP3 ADD MSTORE PUSH18 0x383934BB34B632B233B2B21030B1BA34B7B7 PUSH1 0x71 SHL PUSH1 0x44 DUP3 ADD MSTORE SWAP1 MLOAD SWAP1 DUP2 SWAP1 SUB PUSH1 0x64 ADD SWAP1 REVERT JUMPDEST PUSH2 0xEAF PUSH1 0x3 DUP4 DUP4 PUSH2 0x2B31 JUMP JUMPDEST POP POP POP JUMP JUMPDEST PUSH1 0x6 SLOAD PUSH1 0x1 PUSH1 0x1 PUSH1 0xA0 SHL SUB AND CALLER EQ PUSH2 0xF08 JUMPI PUSH1 0x40 DUP1 MLOAD PUSH3 0x461BCD PUSH1 0xE5 SHL DUP2 MSTORE PUSH1 0x20 PUSH1 0x4 DUP3 ADD MSTORE PUSH1 0x12 PUSH1 0x24 DUP3 ADD MSTORE PUSH18 0x383934BB34B632B233B2B21030B1BA34B7B7 PUSH1 0x71 SHL PUSH1 0x44 DUP3 ADD MSTORE SWAP1 MLOAD SWAP1 DUP2 SWAP1 SUB PUSH1 0x64 ADD SWAP1 REVERT JUMPDEST PUSH2 0x2710 DUP2 PUSH2 0xFFFF AND GT ISZERO PUSH2 0xF63 JUMPI PUSH1 0x40 DUP1 MLOAD PUSH3 0x461BCD PUSH1 0xE5 SHL DUP2 MSTORE PUSH1 0x20 PUSH1 0x4 DUP3 ADD MSTORE PUSH1 0x1A PUSH1 0x24 DUP3 ADD MSTORE PUSH32 0x66656520726174652067726561746572207468616E2031303025000000000000 PUSH1 0x44 DUP3 ADD MSTORE SWAP1 MLOAD SWAP1 DUP2 SWAP1 SUB PUSH1 0x64 ADD SWAP1 REVERT JUMPDEST PUSH1 0x8 DUP1 SLOAD PUSH2 0xFFFF DUP4 AND PUSH2 0xFFFF NOT SWAP1 SWAP2 AND DUP2 OR SWAP1 SWAP2 SSTORE PUSH1 0x40 DUP1 MLOAD SWAP2 DUP3 MSTORE MLOAD PUSH32 0x14282C9567A0BD8773E3D001CF3479F767741657F6407B023A012FD1CFD8B06D SWAP2 DUP2 SWAP1 SUB PUSH1 0x20 ADD SWAP1 LOG1 POP JUMP JUMPDEST PUSH1 0x0 DUP3 DUP2 MSTORE PUSH1 0x2 PUSH1 0x20 SWAP1 DUP2 MSTORE PUSH1 0x40 DUP1 DUP4 KECCAK256 PUSH1 0x1 PUSH1 0x1 PUSH1 0xA0 SHL SUB DUP6 AND DUP5 MSTORE PUSH1 0x7 ADD SWAP1 SWAP2 MSTORE SWAP1 KECCAK256 SLOAD PUSH1 0xFF AND SWAP3 SWAP2 POP POP JUMP JUMPDEST PUSH1 0x0 DUP3 DUP2 MSTORE PUSH1 0x2 PUSH1 0x20 MSTORE PUSH1 0x40 SWAP1 KECCAK256 CALLER SWAP1 PUSH2 0xFF6 DUP5 DUP4 PUSH2 0xFAD JUMP JUMPDEST ISZERO PUSH2 0x103B JUMPI PUSH1 0x40 DUP1 MLOAD PUSH3 0x461BCD PUSH1 0xE5 SHL DUP2 MSTORE PUSH1 0x20 PUSH1 0x4 DUP3 ADD MSTORE PUSH1 0x10 PUSH1 0x24 DUP3 ADD MSTORE PUSH16 0x636F6C6C6563746564206265666F7265 PUSH1 0x80 SHL PUSH1 0x44 DUP3 ADD MSTORE SWAP1 MLOAD SWAP1 DUP2 SWAP1 SUB PUSH1 0x64 ADD SWAP1 REVERT JUMPDEST DUP1 PUSH1 0x4 ADD SLOAD DUP2 PUSH1 0x5 ADD SLOAD LT PUSH2 0x1090 JUMPI PUSH1 0x40 DUP1 MLOAD PUSH3 0x461BCD PUSH1 0xE5 SHL DUP2 MSTORE PUSH1 0x20 PUSH1 0x4 DUP3 ADD MSTORE PUSH1 0x16 PUSH1 0x24 DUP3 ADD MSTORE PUSH22 0x18DBDB1B1958DD1BDC8818DBDD5B9D08195E18D95959 PUSH1 0x52 SHL PUSH1 0x44 DUP3 ADD MSTORE SWAP1 MLOAD SWAP1 DUP2 SWAP1 SUB PUSH1 0x64 ADD SWAP1 REVERT JUMPDEST PUSH1 0x0 PUSH2 0x109C DUP6 DUP5 PUSH2 0x12A9 JUMP JUMPDEST DUP3 SLOAD SWAP1 SWAP2 POP PUSH1 0x1 PUSH1 0x1 PUSH1 0xA0 SHL SUB AND PUSH2 0x10B4 DUP3 DUP7 PUSH2 0x1523 JUMP JUMPDEST PUSH1 0x1 PUSH1 0x1 PUSH1 0xA0 SHL SUB AND EQ PUSH2 0x110F JUMPI PUSH1 0x40 DUP1 MLOAD PUSH3 0x461BCD PUSH1 0xE5 SHL DUP2 MSTORE PUSH1 0x20 PUSH1 0x4 DUP3 ADD MSTORE PUSH1 0x1F PUSH1 0x24 DUP3 ADD MSTORE PUSH32 0x7369676E6174757265206E6F74207369676E65642062792063726561746F7200 PUSH1 0x44 DUP3 ADD MSTORE SWAP1 MLOAD SWAP1 DUP2 SWAP1 SUB PUSH1 0x64 ADD SWAP1 REVERT JUMPDEST PUSH1 0x40 MLOAD DUP1 PUSH1 0x40 ADD PUSH1 0x40 MSTORE DUP1 DUP5 PUSH1 0x1 PUSH1 0x1 PUSH1 0xA0 SHL SUB AND DUP2 MSTORE PUSH1 0x20 ADD PUSH2 0x1132 DUP6 PUSH2 0x238F JUMP JUMPDEST SWAP1 MSTORE PUSH1 0x5 DUP4 ADD DUP1 SLOAD PUSH1 0x0 SWAP1 DUP2 MSTORE PUSH1 0x8 DUP6 ADD PUSH1 0x20 SWAP1 DUP2 MSTORE PUSH1 0x40 DUP1 DUP4 KECCAK256 DUP6 MLOAD DUP2 SLOAD PUSH1 0x1 PUSH1 0x1 PUSH1 0xA0 SHL SUB NOT AND PUSH1 0x1 PUSH1 0x1 PUSH1 0xA0 SHL SUB SWAP2 DUP3 AND OR DUP3 SSTORE SWAP6 DUP4 ADD MLOAD PUSH1 0x1 SWAP2 DUP3 ADD SSTORE DUP5 SLOAD DUP2 ADD SWAP1 SWAP5 SSTORE SWAP7 SWAP1 SWAP4 AND DUP2 MSTORE PUSH1 0x7 SWAP1 SWAP5 ADD SWAP1 SWAP2 MSTORE SWAP3 SWAP1 SWAP2 KECCAK256 DUP1 SLOAD PUSH1 0xFF NOT AND SWAP1 SWAP3 OR SWAP1 SWAP2 SSTORE POP POP POP JUMP JUMPDEST PUSH1 0x0 SLOAD PUSH2 0x100 SWAP1 DIV PUSH1 0xFF AND DUP1 PUSH2 0x11B6 JUMPI POP PUSH2 0x11B6 PUSH2 0x24F8 JUMP JUMPDEST DUP1 PUSH2 0x11C4 JUMPI POP PUSH1 0x0 SLOAD PUSH1 0xFF AND ISZERO JUMPDEST PUSH2 0x11FF JUMPI PUSH1 0x40 MLOAD PUSH3 0x461BCD PUSH1 0xE5 SHL DUP2 MSTORE PUSH1 0x4 ADD DUP1 DUP1 PUSH1 0x20 ADD DUP3 DUP2 SUB DUP3 MSTORE PUSH1 0x2E DUP2 MSTORE PUSH1 0x20 ADD DUP1 PUSH2 0x2C48 PUSH1 0x2E SWAP2 CODECOPY PUSH1 0x40 ADD SWAP2 POP POP PUSH1 0x40 MLOAD DUP1 SWAP2 SUB SWAP1 REVERT JUMPDEST PUSH1 0x0 SLOAD PUSH2 0x100 SWAP1 DIV PUSH1 0xFF AND ISZERO DUP1 ISZERO PUSH2 0x122A JUMPI PUSH1 0x0 DUP1 SLOAD PUSH1 0xFF NOT PUSH2 0xFF00 NOT SWAP1 SWAP2 AND PUSH2 0x100 OR AND PUSH1 0x1 OR SWAP1 SSTORE JUMPDEST PUSH1 0x6 DUP1 SLOAD PUSH1 0x1 PUSH1 0x1 PUSH1 0xA0 SHL SUB NOT AND PUSH1 0x1 PUSH1 0x1 PUSH1 0xA0 SHL SUB DUP6 DUP2 AND SWAP2 SWAP1 SWAP2 OR SWAP1 SWAP2 SSTORE PUSH1 0x8 DUP1 SLOAD PUSH1 0xA PUSH5 0x100000000 PUSH1 0x1 PUSH1 0xC0 SHL SUB NOT SWAP1 SWAP2 AND PUSH1 0x1 PUSH1 0x20 SHL SWAP4 DUP7 AND SWAP4 SWAP1 SWAP4 MUL SWAP3 SWAP1 SWAP3 OR PUSH2 0xFFFF NOT AND SWAP2 SWAP1 SWAP2 OR PUSH4 0xFFFF0000 NOT AND PUSH4 0x27100000 OR SWAP1 SSTORE PUSH7 0x38D7EA4C68000 PUSH1 0x7 SSTORE DUP1 ISZERO PUSH2 0xEAF JUMPI PUSH1 0x0 DUP1 SLOAD PUSH2 0xFF00 NOT AND SWAP1 SSTORE POP POP POP JUMP JUMPDEST PUSH1 0x0 DUP1 PUSH2 0x12B6 DUP5 DUP5 PUSH2 0x13F8 JUMP JUMPDEST SWAP1 POP DUP1 PUSH1 0x40 MLOAD PUSH1 0x20 ADD DUP1 DUP1 PUSH32 0x19457468657265756D205369676E6564204D6573736167653A0A333200000000 DUP2 MSTORE POP PUSH1 0x1C ADD DUP3 DUP2 MSTORE PUSH1 0x20 ADD SWAP2 POP POP PUSH1 0x40 MLOAD PUSH1 0x20 DUP2 DUP4 SUB SUB DUP2 MSTORE SWAP1 PUSH1 0x40 MSTORE DUP1 MLOAD SWAP1 PUSH1 0x20 ADD KECCAK256 SWAP2 POP POP SWAP3 SWAP2 POP POP JUMP JUMPDEST PUSH1 0x6 SLOAD PUSH1 0x1 PUSH1 0x1 PUSH1 0xA0 SHL SUB AND CALLER EQ PUSH2 0x1364 JUMPI PUSH1 0x40 DUP1 MLOAD PUSH3 0x461BCD PUSH1 0xE5 SHL DUP2 MSTORE PUSH1 0x20 PUSH1 0x4 DUP3 ADD MSTORE PUSH1 0x12 PUSH1 0x24 DUP3 ADD MSTORE PUSH18 0x383934BB34B632B233B2B21030B1BA34B7B7 PUSH1 0x71 SHL PUSH1 0x44 DUP3 ADD MSTORE SWAP1 MLOAD SWAP1 DUP2 SWAP1 SUB PUSH1 0x64 ADD SWAP1 REVERT JUMPDEST PUSH1 0x1 PUSH1 0x1 PUSH1 0xA0 SHL SUB DUP3 AND PUSH1 0x0 SWAP1 DUP2 MSTORE PUSH1 0x5 PUSH1 0x20 MSTORE PUSH1 0x40 SWAP1 KECCAK256 SLOAD DUP2 GT ISZERO PUSH2 0x13BB JUMPI PUSH1 0x40 MLOAD PUSH3 0x461BCD PUSH1 0xE5 SHL DUP2 MSTORE PUSH1 0x4 ADD DUP1 DUP1 PUSH1 0x20 ADD DUP3 DUP2 SUB DUP3 MSTORE PUSH1 0x24 DUP2 MSTORE PUSH1 0x20 ADD DUP1 PUSH2 0x2C76 PUSH1 0x24 SWAP2 CODECOPY PUSH1 0x40 ADD SWAP2 POP POP PUSH1 0x40 MLOAD DUP1 SWAP2 SUB SWAP1 REVERT JUMPDEST PUSH1 0x6 SLOAD PUSH2 0x13D5 SWAP1 PUSH1 0x1 PUSH1 0x1 PUSH1 0xA0 SHL SUB DUP5 DUP2 AND SWAP2 AND DUP4 PUSH2 0x2509 JUMP JUMPDEST PUSH1 0x1 PUSH1 0x1 PUSH1 0xA0 SHL SUB SWAP1 SWAP2 AND PUSH1 0x0 SWAP1 DUP2 MSTORE PUSH1 0x5 PUSH1 0x20 MSTORE PUSH1 0x40 SWAP1 KECCAK256 DUP1 SLOAD SWAP2 SWAP1 SWAP2 SUB SWAP1 SSTORE JUMP JUMPDEST PUSH1 0x40 DUP1 MLOAD PUSH1 0x20 DUP1 DUP3 ADD SWAP5 SWAP1 SWAP5 MSTORE PUSH1 0x60 SWAP3 SWAP1 SWAP3 SHL PUSH12 0xFFFFFFFFFFFFFFFFFFFFFFFF NOT AND DUP3 DUP3 ADD MSTORE DUP1 MLOAD DUP1 DUP4 SUB PUSH1 0x34 ADD DUP2 MSTORE PUSH1 0x54 SWAP1 SWAP3 ADD SWAP1 MSTORE DUP1 MLOAD SWAP2 ADD KECCAK256 SWAP1 JUMP JUMPDEST PUSH1 0x40 DUP1 MLOAD PUSH1 0x1 PUSH1 0x1 PUSH1 0xA0 SHL SUB DUP1 DUP6 AND PUSH1 0x24 DUP4 ADD MSTORE DUP4 AND PUSH1 0x44 DUP1 DUP4 ADD SWAP2 SWAP1 SWAP2 MSTORE DUP3 MLOAD DUP1 DUP4 SUB SWAP1 SWAP2 ADD DUP2 MSTORE PUSH1 0x64 SWAP1 SWAP2 ADD SWAP1 SWAP2 MSTORE PUSH1 0x20 DUP2 ADD DUP1 MLOAD PUSH1 0x1 PUSH1 0x1 PUSH1 0xE0 SHL SUB AND PUSH4 0x485CC955 PUSH1 0xE0 SHL OR SWAP1 MSTORE SWAP3 SWAP2 POP POP JUMP JUMPDEST PUSH1 0x40 DUP1 MLOAD PUSH12 0xFFFFFFFFFFFFFFFFFFFFFFFF NOT PUSH1 0x60 SWAP8 DUP9 SHL DUP2 AND PUSH1 0x20 DUP1 DUP5 ADD SWAP2 SWAP1 SWAP2 MSTORE PUSH1 0x34 DUP4 ADD SWAP8 SWAP1 SWAP8 MSTORE SWAP5 SWAP1 SWAP7 SHL SWAP1 SWAP4 AND PUSH1 0x54 DUP7 ADD MSTORE PUSH1 0x68 DUP6 ADD SWAP2 SWAP1 SWAP2 MSTORE PUSH1 0x88 DUP1 DUP6 ADD SWAP2 SWAP1 SWAP2 MSTORE DUP2 MLOAD DUP1 DUP6 SUB SWAP1 SWAP2 ADD DUP2 MSTORE PUSH1 0xA8 SWAP1 SWAP4 ADD SWAP1 MSTORE DUP2 MLOAD SWAP2 ADD KECCAK256 SWAP1 JUMP JUMPDEST PUSH1 0x6 SLOAD PUSH1 0x1 PUSH1 0x1 PUSH1 0xA0 SHL SUB AND DUP2 JUMP JUMPDEST PUSH1 0x5 PUSH1 0x20 MSTORE PUSH1 0x0 SWAP1 DUP2 MSTORE PUSH1 0x40 SWAP1 KECCAK256 SLOAD DUP2 JUMP JUMPDEST PUSH1 0x8 SLOAD PUSH3 0x10000 SWAP1 DIV PUSH2 0xFFFF AND DUP2 JUMP JUMPDEST PUSH1 0x8 SLOAD PUSH2 0xFFFF AND DUP2 JUMP JUMPDEST PUSH1 0x0 DUP1 PUSH1 0x0 DUP1 PUSH2 0x1532 DUP6 PUSH2 0x167A JUMP JUMPDEST SWAP3 POP SWAP3 POP SWAP3 POP PUSH1 0x1 DUP7 DUP3 DUP6 DUP6 PUSH1 0x40 MLOAD PUSH1 0x0 DUP2 MSTORE PUSH1 0x20 ADD PUSH1 0x40 MSTORE PUSH1 0x40 MLOAD DUP1 DUP6 DUP2 MSTORE PUSH1 0x20 ADD DUP5 PUSH1 0xFF AND DUP2 MSTORE PUSH1 0x20 ADD DUP4 DUP2 MSTORE PUSH1 0x20 ADD DUP3 DUP2 MSTORE PUSH1 0x20 ADD SWAP5 POP POP POP POP POP PUSH1 0x20 PUSH1 0x40 MLOAD PUSH1 0x20 DUP2 SUB SWAP1 DUP1 DUP5 SUB SWAP1 DUP6 GAS STATICCALL ISZERO DUP1 ISZERO PUSH2 0x1592 JUMPI RETURNDATASIZE PUSH1 0x0 DUP1 RETURNDATACOPY RETURNDATASIZE PUSH1 0x0 REVERT JUMPDEST POP POP PUSH1 0x40 MLOAD PUSH1 0x1F NOT ADD MLOAD SWAP8 SWAP7 POP POP POP POP POP POP POP JUMP JUMPDEST PUSH1 0x4 PUSH1 0x20 MSTORE PUSH1 0x0 SWAP1 DUP2 MSTORE PUSH1 0x40 SWAP1 KECCAK256 DUP1 SLOAD PUSH1 0x1 SWAP1 SWAP2 ADD SLOAD DUP3 JUMP JUMPDEST PUSH2 0x15D5 PUSH1 0x1 PUSH1 0x1 PUSH1 0xA0 SHL SUB DUP4 AND CALLER ADDRESS DUP5 PUSH2 0x255B JUMP JUMPDEST PUSH1 0x1 PUSH1 0x1 PUSH1 0xA0 SHL SUB SWAP1 SWAP2 AND PUSH1 0x0 SWAP1 DUP2 MSTORE PUSH1 0x5 PUSH1 0x20 MSTORE PUSH1 0x40 SWAP1 KECCAK256 DUP1 SLOAD SWAP1 SWAP2 ADD SWAP1 SSTORE JUMP JUMPDEST PUSH1 0x0 DUP1 PUSH1 0x1 DUP4 EQ ISZERO PUSH2 0x160A JUMPI POP DUP3 PUSH2 0x166F JUMP JUMPDEST DUP4 DUP4 EQ ISZERO PUSH2 0x161A JUMPI POP PUSH1 0x1 PUSH2 0x166F JUMP JUMPDEST DUP4 DUP4 LT ISZERO PUSH2 0x166F JUMPI DUP3 DUP5 DUP2 PUSH2 0x162B JUMPI INVALID JUMPDEST DIV PUSH1 0x2 MUL DUP7 DUP7 PUSH1 0x40 MLOAD PUSH1 0x20 ADD DUP1 DUP4 DUP2 MSTORE PUSH1 0x20 ADD DUP3 DUP2 MSTORE PUSH1 0x20 ADD SWAP3 POP POP POP PUSH1 0x40 MLOAD PUSH1 0x20 DUP2 DUP4 SUB SUB DUP2 MSTORE SWAP1 PUSH1 0x40 MSTORE DUP1 MLOAD SWAP1 PUSH1 0x20 ADD KECCAK256 PUSH1 0x0 SHR DUP2 PUSH2 0x1668 JUMPI INVALID JUMPDEST MOD PUSH1 0x1 ADD SWAP1 POP JUMPDEST SWAP1 POP JUMPDEST SWAP5 SWAP4 POP POP POP POP JUMP JUMPDEST PUSH1 0x0 DUP1 PUSH1 0x0 DUP4 MLOAD PUSH1 0x41 EQ PUSH2 0x16D5 JUMPI PUSH1 0x40 DUP1 MLOAD PUSH3 0x461BCD PUSH1 0xE5 SHL DUP2 MSTORE PUSH1 0x20 PUSH1 0x4 DUP3 ADD MSTORE PUSH1 0x18 PUSH1 0x24 DUP3 ADD MSTORE PUSH32 0x696E76616C6964207369676E6174757265206C656E6774680000000000000000 PUSH1 0x44 DUP3 ADD MSTORE SWAP1 MLOAD SWAP1 DUP2 SWAP1 SUB PUSH1 0x64 ADD SWAP1 REVERT JUMPDEST POP POP POP PUSH1 0x20 DUP2 ADD MLOAD PUSH1 0x40 DUP3 ADD MLOAD PUSH1 0x60 SWAP1 SWAP3 ADD MLOAD SWAP1 SWAP3 PUSH1 0x0 SWAP2 SWAP1 SWAP2 BYTE SWAP1 JUMP JUMPDEST PUSH1 0x7 SLOAD DUP2 JUMP JUMPDEST PUSH1 0x8 SLOAD PUSH1 0x0 SWAP1 PUSH2 0xFFFF PUSH3 0x10000 DUP3 DIV DUP2 AND SWAP2 AND DUP4 MUL DUP2 PUSH2 0x1715 JUMPI INVALID JUMPDEST DIV SWAP3 SWAP2 POP POP JUMP JUMPDEST PUSH1 0x8 SLOAD PUSH1 0x1 PUSH1 0x20 SHL SWAP1 DIV PUSH1 0x1 PUSH1 0x1 PUSH1 0xA0 SHL SUB AND DUP2 JUMP JUMPDEST PUSH1 0x2 PUSH1 0x20 DUP2 SWAP1 MSTORE PUSH1 0x0 SWAP2 DUP3 MSTORE PUSH1 0x40 SWAP1 SWAP2 KECCAK256 DUP1 SLOAD PUSH1 0x1 DUP3 ADD SLOAD SWAP3 DUP3 ADD SLOAD PUSH1 0x3 DUP4 ADD SLOAD PUSH1 0x4 DUP5 ADD SLOAD PUSH1 0x5 DUP6 ADD SLOAD PUSH1 0x6 SWAP1 SWAP6 ADD SLOAD PUSH1 0x1 PUSH1 0x1 PUSH1 0xA0 SHL SUB SWAP5 DUP6 AND SWAP7 SWAP6 PUSH1 0xFF DUP6 AND SWAP6 PUSH2 0x100 SWAP1 SWAP6 DIV SWAP1 SWAP5 AND SWAP4 SWAP1 DUP9 JUMP JUMPDEST PUSH1 0x0 SWAP1 DUP2 MSTORE PUSH1 0x2 PUSH1 0x20 MSTORE PUSH1 0x40 SWAP1 KECCAK256 PUSH1 0x1 ADD SLOAD SWAP1 JUMP JUMPDEST PUSH1 0x6 SLOAD PUSH1 0x1 PUSH1 0x1 PUSH1 0xA0 SHL SUB AND CALLER EQ PUSH2 0x17EC JUMPI PUSH1 0x40 DUP1 MLOAD PUSH3 0x461BCD PUSH1 0xE5 SHL DUP2 MSTORE PUSH1 0x20 PUSH1 0x4 DUP3 ADD MSTORE PUSH1 0x12 PUSH1 0x24 DUP3 ADD MSTORE PUSH18 0x383934BB34B632B233B2B21030B1BA34B7B7 PUSH1 0x71 SHL PUSH1 0x44 DUP3 ADD MSTORE SWAP1 MLOAD SWAP1 DUP2 SWAP1 SUB PUSH1 0x64 ADD SWAP1 REVERT JUMPDEST PUSH1 0x7 SSTORE JUMP JUMPDEST PUSH1 0x6 SLOAD PUSH1 0x1 PUSH1 0x1 PUSH1 0xA0 SHL SUB AND CALLER EQ PUSH2 0x1845 JUMPI PUSH1 0x40 DUP1 MLOAD PUSH3 0x461BCD PUSH1 0xE5 SHL DUP2 MSTORE PUSH1 0x20 PUSH1 0x4 DUP3 ADD MSTORE PUSH1 0x12 PUSH1 0x24 DUP3 ADD MSTORE PUSH18 0x383934BB34B632B233B2B21030B1BA34B7B7 PUSH1 0x71 SHL PUSH1 0x44 DUP3 ADD MSTORE SWAP1 MLOAD SWAP1 DUP2 SWAP1 SUB PUSH1 0x64 ADD SWAP1 REVERT JUMPDEST PUSH1 0x40 DUP1 MLOAD DUP1 DUP3 ADD DUP3 MSTORE SWAP3 DUP4 MSTORE PUSH1 0x20 DUP1 DUP5 ADD SWAP3 DUP4 MSTORE PUSH1 0x1 PUSH1 0x1 PUSH1 0xA0 SHL SUB SWAP1 SWAP5 AND PUSH1 0x0 SWAP1 DUP2 MSTORE PUSH1 0x4 SWAP1 SWAP5 MSTORE SWAP1 SWAP3 KECCAK256 SWAP1 MLOAD DUP2 SSTORE SWAP1 MLOAD PUSH1 0x1 SWAP1 SWAP2 ADD SSTORE JUMP JUMPDEST CALLER PUSH1 0x0 DUP1 JUMPDEST DUP5 MLOAD DUP2 LT ISZERO PUSH2 0x18B2 JUMPI DUP4 DUP2 DUP2 MLOAD DUP2 LT PUSH2 0x1899 JUMPI INVALID JUMPDEST PUSH1 0x20 MUL PUSH1 0x20 ADD ADD MLOAD DUP3 ADD SWAP2 POP DUP1 DUP1 PUSH1 0x1 ADD SWAP2 POP POP PUSH2 0x1884 JUMP JUMPDEST POP PUSH1 0x0 PUSH2 0x18C2 DUP4 PUSH1 0x0 DUP9 DUP6 PUSH2 0x25BB JUMP JUMPDEST SWAP1 POP PUSH2 0x18CF DUP4 PUSH1 0x0 PUSH2 0x274E JUMP JUMPDEST PUSH1 0x40 DUP1 MLOAD PUSH1 0x1 PUSH1 0x1 PUSH1 0xA0 SHL SUB DUP9 DUP2 AND DUP3 MSTORE PUSH1 0x20 DUP3 ADD DUP6 SWAP1 MSTORE DUP2 DUP4 ADD DUP5 SWAP1 MSTORE SWAP2 MLOAD SWAP2 DUP6 AND SWAP2 PUSH32 0xBF96C70098F946BF86FD27E5BBC90E1E091403F5CB76E374F724CF62A0206A30 SWAP2 DUP2 SWAP1 SUB PUSH1 0x60 ADD SWAP1 LOG2 PUSH1 0x0 JUMPDEST DUP6 MLOAD DUP2 LT ISZERO PUSH2 0x19FE JUMPI PUSH2 0x196D DUP7 DUP3 DUP2 MLOAD DUP2 LT PUSH2 0x1938 JUMPI INVALID JUMPDEST PUSH1 0x20 MUL PUSH1 0x20 ADD ADD MLOAD DUP7 DUP4 DUP2 MLOAD DUP2 LT PUSH2 0x194C JUMPI INVALID JUMPDEST PUSH1 0x20 MUL PUSH1 0x20 ADD ADD MLOAD DUP10 PUSH1 0x1 PUSH1 0x1 PUSH1 0xA0 SHL SUB AND PUSH2 0x2509 SWAP1 SWAP3 SWAP2 SWAP1 PUSH4 0xFFFFFFFF AND JUMP JUMPDEST DUP7 PUSH1 0x1 PUSH1 0x1 PUSH1 0xA0 SHL SUB AND DUP7 DUP3 DUP2 MLOAD DUP2 LT PUSH2 0x1983 JUMPI INVALID JUMPDEST PUSH1 0x20 MUL PUSH1 0x20 ADD ADD MLOAD PUSH1 0x1 PUSH1 0x1 PUSH1 0xA0 SHL SUB AND PUSH1 0x0 DUP1 MLOAD PUSH1 0x20 PUSH2 0x2CBF DUP4 CODECOPY DUP2 MLOAD SWAP2 MSTORE PUSH1 0x1 DUP9 DUP6 DUP2 MLOAD DUP2 LT PUSH2 0x19B1 JUMPI INVALID JUMPDEST PUSH1 0x20 SWAP1 DUP2 MUL SWAP2 SWAP1 SWAP2 ADD DUP2 ADD MLOAD PUSH1 0x40 DUP1 MLOAD SWAP4 DUP5 MSTORE SWAP2 DUP4 ADD MSTORE PUSH1 0x0 DUP3 DUP3 ADD MSTORE MLOAD SWAP1 DUP2 SWAP1 SUB PUSH1 0x60 ADD SWAP1 LOG3 PUSH2 0x19F6 DUP7 DUP3 DUP2 MLOAD DUP2 LT PUSH2 0x19E7 JUMPI INVALID JUMPDEST PUSH1 0x20 MUL PUSH1 0x20 ADD ADD MLOAD PUSH1 0x1 PUSH2 0x274E JUMP JUMPDEST PUSH1 0x1 ADD PUSH2 0x1920 JUMP JUMPDEST POP POP POP POP POP POP POP JUMP JUMPDEST PUSH1 0x7 SLOAD PUSH1 0x0 SWAP1 CALLER SWAP1 CALLVALUE SWAP1 DUP2 LT ISZERO PUSH2 0x1A65 JUMPI PUSH1 0x40 DUP1 MLOAD PUSH3 0x461BCD PUSH1 0xE5 SHL DUP2 MSTORE PUSH1 0x20 PUSH1 0x4 DUP3 ADD MSTORE PUSH1 0x1A PUSH1 0x24 DUP3 ADD MSTORE PUSH32 0x6E6F7420656E6F75676820746F20726566756E64206C61746572000000000000 PUSH1 0x44 DUP3 ADD MSTORE SWAP1 MLOAD SWAP1 DUP2 SWAP1 SUB PUSH1 0x64 ADD SWAP1 REVERT JUMPDEST PUSH1 0x0 PUSH2 0x1A77 DUP4 PUSH1 0x7 SLOAD CALLVALUE SUB DUP10 DUP10 PUSH2 0x25BB JUMP JUMPDEST SWAP1 POP PUSH1 0x0 PUSH2 0x1A88 DUP5 TIMESTAMP DUP11 DUP11 DUP11 PUSH2 0x1488 JUMP JUMPDEST SWAP1 POP PUSH1 0x0 PUSH1 0x2 PUSH1 0x0 DUP4 DUP2 MSTORE PUSH1 0x20 ADD SWAP1 DUP2 MSTORE PUSH1 0x20 ADD PUSH1 0x0 KECCAK256 SWAP1 POP DUP5 DUP2 PUSH1 0x0 ADD PUSH1 0x0 PUSH2 0x100 EXP DUP2 SLOAD DUP2 PUSH1 0x1 PUSH1 0x1 PUSH1 0xA0 SHL SUB MUL NOT AND SWAP1 DUP4 PUSH1 0x1 PUSH1 0x1 PUSH1 0xA0 SHL SUB AND MUL OR SWAP1 SSTORE POP DUP11 DUP2 PUSH1 0x1 ADD DUP2 SWAP1 SSTORE POP DUP10 DUP2 PUSH1 0x2 ADD PUSH1 0x0 PUSH2 0x100 EXP DUP2 SLOAD DUP2 PUSH1 0xFF MUL NOT AND SWAP1 DUP4 PUSH1 0xFF AND MUL OR SWAP1 SSTORE POP DUP9 DUP2 PUSH1 0x2 ADD PUSH1 0x1 PUSH2 0x100 EXP DUP2 SLOAD DUP2 PUSH1 0x1 PUSH1 0x1 PUSH1 0xA0 SHL SUB MUL NOT AND SWAP1 DUP4 PUSH1 0x1 PUSH1 0x1 PUSH1 0xA0 SHL SUB AND MUL OR SWAP1 SSTORE POP DUP8 DUP2 PUSH1 0x3 ADD DUP2 SWAP1 SSTORE POP DUP7 DUP2 PUSH1 0x4 ADD DUP2 SWAP1 SSTORE POP PUSH1 0x7 SLOAD DUP2 PUSH1 0x6 ADD DUP2 SWAP1 SSTORE POP DUP2 PUSH32 0x2D638DBD51A6DEFDCA8B25F5337E68A1B6584B6A7809B7EAA1D6FB595971113F DUP11 DUP11 DUP15 DUP12 DUP9 PUSH1 0x7 SLOAD PUSH1 0x40 MLOAD DUP1 DUP8 PUSH1 0x1 PUSH1 0x1 PUSH1 0xA0 SHL SUB AND DUP2 MSTORE PUSH1 0x20 ADD DUP7 DUP2 MSTORE PUSH1 0x20 ADD DUP6 DUP2 MSTORE PUSH1 0x20 ADD DUP5 DUP2 MSTORE PUSH1 0x20 ADD DUP4 DUP2 MSTORE PUSH1 0x20 ADD DUP3 DUP2 MSTORE PUSH1 0x20 ADD SWAP7 POP POP POP POP POP POP POP PUSH1 0x40 MLOAD DUP1 SWAP2 SUB SWAP1 LOG2 PUSH2 0x1BAC DUP6 PUSH1 0x0 PUSH2 0x274E JUMP JUMPDEST POP SWAP10 SWAP9 POP POP POP POP POP POP POP POP POP JUMP JUMPDEST CALLER PUSH1 0x0 DUP1 JUMPDEST DUP5 MLOAD DUP2 LT ISZERO PUSH2 0x1BED JUMPI DUP4 DUP2 DUP2 MLOAD DUP2 LT PUSH2 0x1BD4 JUMPI INVALID JUMPDEST PUSH1 0x20 MUL PUSH1 0x20 ADD ADD MLOAD DUP3 ADD SWAP2 POP DUP1 DUP1 PUSH1 0x1 ADD SWAP2 POP POP PUSH2 0x1BBF JUMP JUMPDEST POP PUSH1 0x0 PUSH2 0x1BFD DUP4 CALLVALUE PUSH1 0x0 DUP6 PUSH2 0x25BB JUMP JUMPDEST SWAP1 POP PUSH2 0x1C0A DUP4 PUSH1 0x0 PUSH2 0x274E JUMP JUMPDEST PUSH1 0x40 DUP1 MLOAD PUSH1 0x0 DUP2 MSTORE PUSH1 0x20 DUP2 ADD DUP5 SWAP1 MSTORE DUP1 DUP3 ADD DUP4 SWAP1 MSTORE SWAP1 MLOAD PUSH1 0x1 PUSH1 0x1 PUSH1 0xA0 SHL SUB DUP6 AND SWAP2 PUSH32 0xBF96C70098F946BF86FD27E5BBC90E1E091403F5CB76E374F724CF62A0206A30 SWAP2 SWAP1 DUP2 SWAP1 SUB PUSH1 0x60 ADD SWAP1 LOG2 PUSH1 0x0 JUMPDEST DUP6 MLOAD DUP2 LT ISZERO PUSH2 0x1D46 JUMPI DUP6 DUP2 DUP2 MLOAD DUP2 LT PUSH2 0x1C6F JUMPI INVALID JUMPDEST PUSH1 0x20 MUL PUSH1 0x20 ADD ADD MLOAD PUSH1 0x1 PUSH1 0x1 PUSH1 0xA0 SHL SUB AND PUSH2 0x8FC DUP7 DUP4 DUP2 MLOAD DUP2 LT PUSH2 0x1C8F JUMPI INVALID JUMPDEST PUSH1 0x20 MUL PUSH1 0x20 ADD ADD MLOAD SWAP1 DUP2 ISZERO MUL SWAP1 PUSH1 0x40 MLOAD PUSH1 0x0 PUSH1 0x40 MLOAD DUP1 DUP4 SUB DUP2 DUP6 DUP9 DUP9 CALL SWAP4 POP POP POP POP ISZERO DUP1 ISZERO PUSH2 0x1CC2 JUMPI RETURNDATASIZE PUSH1 0x0 DUP1 RETURNDATACOPY RETURNDATASIZE PUSH1 0x0 REVERT JUMPDEST POP PUSH1 0x0 PUSH1 0x1 PUSH1 0x1 PUSH1 0xA0 SHL SUB AND DUP7 DUP3 DUP2 MLOAD DUP2 LT PUSH2 0x1CDA JUMPI INVALID JUMPDEST PUSH1 0x20 MUL PUSH1 0x20 ADD ADD MLOAD PUSH1 0x1 PUSH1 0x1 PUSH1 0xA0 SHL SUB AND PUSH1 0x0 DUP1 MLOAD PUSH1 0x20 PUSH2 0x2CBF DUP4 CODECOPY DUP2 MLOAD SWAP2 MSTORE PUSH1 0x1 DUP9 DUP6 DUP2 MLOAD DUP2 LT PUSH2 0x1D08 JUMPI INVALID JUMPDEST PUSH1 0x20 SWAP1 DUP2 MUL SWAP2 SWAP1 SWAP2 ADD DUP2 ADD MLOAD PUSH1 0x40 DUP1 MLOAD SWAP4 DUP5 MSTORE SWAP2 DUP4 ADD MSTORE PUSH1 0x0 DUP3 DUP3 ADD MSTORE MLOAD SWAP1 DUP2 SWAP1 SUB PUSH1 0x60 ADD SWAP1 LOG3 PUSH2 0x1D3E DUP7 DUP3 DUP2 MLOAD DUP2 LT PUSH2 0x19E7 JUMPI INVALID JUMPDEST PUSH1 0x1 ADD PUSH2 0x1C5A JUMP JUMPDEST POP POP POP POP POP POP JUMP JUMPDEST PUSH1 0x0 DUP2 DUP2 MSTORE PUSH1 0x2 PUSH1 0x20 MSTORE PUSH1 0x40 SWAP1 KECCAK256 PUSH1 0x4 DUP2 ADD SLOAD PUSH1 0x5 DUP3 ADD SLOAD EQ DUP1 PUSH2 0x1D75 JUMPI POP DUP1 PUSH1 0x1 ADD SLOAD TIMESTAMP GT JUMPDEST PUSH2 0x1DB0 JUMPI PUSH1 0x40 MLOAD PUSH3 0x461BCD PUSH1 0xE5 SHL DUP2 MSTORE PUSH1 0x4 ADD DUP1 DUP1 PUSH1 0x20 ADD DUP3 DUP2 SUB DUP3 MSTORE PUSH1 0x29 DUP2 MSTORE PUSH1 0x20 ADD DUP1 PUSH2 0x2BD7 PUSH1 0x29 SWAP2 CODECOPY PUSH1 0x40 ADD SWAP2 POP POP PUSH1 0x40 MLOAD DUP1 SWAP2 SUB SWAP1 REVERT JUMPDEST PUSH1 0x60 DUP2 PUSH1 0x5 ADD SLOAD PUSH8 0xFFFFFFFFFFFFFFFF DUP2 GT DUP1 ISZERO PUSH2 0x1DCD JUMPI PUSH1 0x0 DUP1 REVERT JUMPDEST POP PUSH1 0x40 MLOAD SWAP1 DUP1 DUP3 MSTORE DUP1 PUSH1 0x20 MUL PUSH1 0x20 ADD DUP3 ADD PUSH1 0x40 MSTORE DUP1 ISZERO PUSH2 0x1DF7 JUMPI DUP2 PUSH1 0x20 ADD PUSH1 0x20 DUP3 MUL DUP1 CALLDATASIZE DUP4 CALLDATACOPY ADD SWAP1 POP JUMPDEST POP SWAP1 POP PUSH1 0x60 DUP3 PUSH1 0x5 ADD SLOAD PUSH8 0xFFFFFFFFFFFFFFFF DUP2 GT DUP1 ISZERO PUSH2 0x1E17 JUMPI PUSH1 0x0 DUP1 REVERT JUMPDEST POP PUSH1 0x40 MLOAD SWAP1 DUP1 DUP3 MSTORE DUP1 PUSH1 0x20 MUL PUSH1 0x20 ADD DUP3 ADD PUSH1 0x40 MSTORE DUP1 ISZERO PUSH2 0x1E41 JUMPI DUP2 PUSH1 0x20 ADD PUSH1 0x20 DUP3 MUL DUP1 CALLDATASIZE DUP4 CALLDATACOPY ADD SWAP1 POP JUMPDEST POP PUSH1 0x4 DUP5 ADD SLOAD PUSH1 0x3 DUP6 ADD SLOAD PUSH1 0x2 DUP7 ADD SLOAD SWAP3 SWAP4 POP SWAP1 SWAP2 PUSH1 0xFF AND PUSH1 0x1 EQ ISZERO PUSH2 0x1F14 JUMPI PUSH1 0x0 DUP6 PUSH1 0x4 ADD SLOAD DUP7 PUSH1 0x3 ADD SLOAD DUP2 PUSH2 0x1E74 JUMPI INVALID JUMPDEST DIV SWAP1 POP DUP6 PUSH1 0x5 ADD SLOAD DUP7 PUSH1 0x4 ADD SLOAD SUB SWAP3 POP DUP6 PUSH1 0x5 ADD SLOAD DUP2 MUL DUP7 PUSH1 0x3 ADD SLOAD SUB SWAP2 POP PUSH1 0x0 JUMPDEST DUP7 PUSH1 0x5 ADD SLOAD DUP2 LT ISZERO PUSH2 0x1F0D JUMPI PUSH1 0x0 DUP2 DUP2 MSTORE PUSH1 0x8 DUP9 ADD PUSH1 0x20 MSTORE PUSH1 0x40 SWAP1 KECCAK256 SLOAD DUP7 MLOAD PUSH1 0x1 PUSH1 0x1 PUSH1 0xA0 SHL SUB SWAP1 SWAP2 AND SWAP1 DUP8 SWAP1 DUP4 SWAP1 DUP2 LT PUSH2 0x1ECD JUMPI INVALID JUMPDEST PUSH1 0x20 MUL PUSH1 0x20 ADD ADD SWAP1 PUSH1 0x1 PUSH1 0x1 PUSH1 0xA0 SHL SUB AND SWAP1 DUP2 PUSH1 0x1 PUSH1 0x1 PUSH1 0xA0 SHL SUB AND DUP2 MSTORE POP POP DUP2 DUP6 DUP3 DUP2 MLOAD DUP2 LT PUSH2 0x1EFA JUMPI INVALID JUMPDEST PUSH1 0x20 SWAP1 DUP2 MUL SWAP2 SWAP1 SWAP2 ADD ADD MSTORE PUSH1 0x1 ADD PUSH2 0x1E96 JUMP JUMPDEST POP POP PUSH2 0x2008 JUMP JUMPDEST PUSH1 0x2 DUP6 ADD SLOAD PUSH1 0xFF AND PUSH2 0x2008 JUMPI PUSH1 0x0 DUP1 JUMPDEST DUP7 PUSH1 0x5 ADD SLOAD DUP2 LT ISZERO PUSH2 0x1F51 JUMPI PUSH1 0x0 DUP2 DUP2 MSTORE PUSH1 0x8 DUP9 ADD PUSH1 0x20 MSTORE PUSH1 0x40 SWAP1 KECCAK256 PUSH1 0x1 SWAP1 DUP2 ADD SLOAD SWAP3 SWAP1 SWAP3 XOR SWAP2 ADD PUSH2 0x1F24 JUMP JUMPDEST POP PUSH1 0x0 JUMPDEST DUP7 PUSH1 0x5 ADD SLOAD DUP2 LT ISZERO PUSH2 0x2005 JUMPI PUSH1 0x0 DUP2 DUP2 MSTORE PUSH1 0x8 DUP9 ADD PUSH1 0x20 MSTORE PUSH1 0x40 SWAP1 KECCAK256 SLOAD DUP7 MLOAD PUSH1 0x1 PUSH1 0x1 PUSH1 0xA0 SHL SUB SWAP1 SWAP2 AND SWAP1 DUP8 SWAP1 DUP4 SWAP1 DUP2 LT PUSH2 0x1F8C JUMPI INVALID JUMPDEST PUSH1 0x1 PUSH1 0x1 PUSH1 0xA0 SHL SUB SWAP1 SWAP3 AND PUSH1 0x20 SWAP3 DUP4 MUL SWAP2 SWAP1 SWAP2 ADD DUP3 ADD MSTORE PUSH1 0x0 DUP3 DUP2 MSTORE PUSH1 0x8 DUP10 ADD SWAP1 SWAP2 MSTORE PUSH1 0x40 SWAP1 KECCAK256 PUSH1 0x1 ADD SLOAD PUSH2 0x1FC4 SWAP1 DUP4 SWAP1 DUP6 DUP8 PUSH2 0x15F7 JUMP JUMPDEST DUP6 DUP3 DUP2 MLOAD DUP2 LT PUSH2 0x1FD0 JUMPI INVALID JUMPDEST PUSH1 0x20 MUL PUSH1 0x20 ADD ADD DUP2 DUP2 MSTORE POP POP PUSH1 0x1 DUP5 SUB SWAP4 POP DUP5 DUP2 DUP2 MLOAD DUP2 LT PUSH2 0x1FEE JUMPI INVALID JUMPDEST PUSH1 0x20 SWAP1 DUP2 MUL SWAP2 SWAP1 SWAP2 ADD ADD MLOAD SWAP1 SWAP3 SUB SWAP2 PUSH1 0x1 ADD PUSH2 0x1F55 JUMP JUMPDEST POP POP JUMPDEST PUSH1 0x2 DUP1 DUP7 ADD SLOAD DUP7 SLOAD PUSH1 0x6 DUP1 DUP10 ADD SLOAD PUSH1 0x0 DUP12 DUP2 MSTORE PUSH1 0x20 DUP7 SWAP1 MSTORE PUSH1 0x40 DUP2 KECCAK256 DUP1 SLOAD PUSH1 0x1 PUSH1 0x1 PUSH1 0xA0 SHL SUB NOT AND DUP2 SSTORE PUSH1 0x1 DUP2 ADD DUP3 SWAP1 SSTORE SWAP6 DUP7 ADD DUP1 SLOAD PUSH1 0x1 PUSH1 0x1 PUSH1 0xA8 SHL SUB NOT AND SWAP1 SSTORE PUSH1 0x3 DUP7 ADD DUP2 SWAP1 SSTORE PUSH1 0x4 DUP7 ADD DUP2 SWAP1 SSTORE PUSH1 0x5 DUP7 ADD DUP2 SWAP1 SSTORE SWAP5 SWAP1 SWAP2 ADD SWAP4 SWAP1 SWAP4 SSTORE PUSH1 0x1 PUSH1 0x1 PUSH1 0xA0 SHL SUB PUSH2 0x100 SWAP1 SWAP3 DIV DUP3 AND SWAP3 SWAP2 AND SWAP1 DUP3 PUSH2 0x21AB JUMPI PUSH1 0x0 JUMPDEST DUP8 MLOAD DUP2 LT ISZERO PUSH2 0x216E JUMPI DUP8 DUP2 DUP2 MLOAD DUP2 LT PUSH2 0x2098 JUMPI INVALID JUMPDEST PUSH1 0x20 MUL PUSH1 0x20 ADD ADD MLOAD PUSH1 0x1 PUSH1 0x1 PUSH1 0xA0 SHL SUB AND PUSH2 0x8FC DUP9 DUP4 DUP2 MLOAD DUP2 LT PUSH2 0x20B8 JUMPI INVALID JUMPDEST PUSH1 0x20 MUL PUSH1 0x20 ADD ADD MLOAD SWAP1 DUP2 ISZERO MUL SWAP1 PUSH1 0x40 MLOAD PUSH1 0x0 PUSH1 0x40 MLOAD DUP1 DUP4 SUB DUP2 DUP6 DUP9 DUP9 CALL SWAP4 POP POP POP POP ISZERO DUP1 ISZERO PUSH2 0x20EB JUMPI RETURNDATASIZE PUSH1 0x0 DUP1 RETURNDATACOPY RETURNDATASIZE PUSH1 0x0 REVERT JUMPDEST POP DUP4 PUSH1 0x1 PUSH1 0x1 PUSH1 0xA0 SHL SUB AND DUP9 DUP3 DUP2 MLOAD DUP2 LT PUSH2 0x2102 JUMPI INVALID JUMPDEST PUSH1 0x20 MUL PUSH1 0x20 ADD ADD MLOAD PUSH1 0x1 PUSH1 0x1 PUSH1 0xA0 SHL SUB AND PUSH1 0x0 DUP1 MLOAD PUSH1 0x20 PUSH2 0x2CBF DUP4 CODECOPY DUP2 MLOAD SWAP2 MSTORE PUSH1 0x2 DUP11 DUP6 DUP2 MLOAD DUP2 LT PUSH2 0x2130 JUMPI INVALID JUMPDEST PUSH1 0x20 SWAP1 DUP2 MUL SWAP2 SWAP1 SWAP2 ADD DUP2 ADD MLOAD PUSH1 0x40 DUP1 MLOAD SWAP4 DUP5 MSTORE SWAP2 DUP4 ADD MSTORE DUP2 DUP2 ADD DUP16 SWAP1 MSTORE MLOAD SWAP1 DUP2 SWAP1 SUB PUSH1 0x60 ADD SWAP1 LOG3 PUSH2 0x2166 DUP9 DUP3 DUP2 MLOAD DUP2 LT PUSH2 0x19E7 JUMPI INVALID JUMPDEST PUSH1 0x1 ADD PUSH2 0x2083 JUMP JUMPDEST POP PUSH1 0x40 MLOAD PUSH1 0x1 PUSH1 0x1 PUSH1 0xA0 SHL SUB DUP4 AND SWAP1 DUP6 ISZERO PUSH2 0x8FC MUL SWAP1 DUP7 SWAP1 PUSH1 0x0 DUP2 DUP2 DUP2 DUP6 DUP9 DUP9 CALL SWAP4 POP POP POP POP ISZERO DUP1 ISZERO PUSH2 0x21A5 JUMPI RETURNDATASIZE PUSH1 0x0 DUP1 RETURNDATACOPY RETURNDATASIZE PUSH1 0x0 REVERT JUMPDEST POP PUSH2 0x2309 JUMP JUMPDEST DUP3 PUSH1 0x0 JUMPDEST DUP9 MLOAD DUP2 LT ISZERO PUSH2 0x2283 JUMPI PUSH2 0x21FC DUP10 DUP3 DUP2 MLOAD DUP2 LT PUSH2 0x21C7 JUMPI INVALID JUMPDEST PUSH1 0x20 MUL PUSH1 0x20 ADD ADD MLOAD DUP10 DUP4 DUP2 MLOAD DUP2 LT PUSH2 0x21DB JUMPI INVALID JUMPDEST PUSH1 0x20 MUL PUSH1 0x20 ADD ADD MLOAD DUP5 PUSH1 0x1 PUSH1 0x1 PUSH1 0xA0 SHL SUB AND PUSH2 0x2509 SWAP1 SWAP3 SWAP2 SWAP1 PUSH4 0xFFFFFFFF AND JUMP JUMPDEST DUP5 PUSH1 0x1 PUSH1 0x1 PUSH1 0xA0 SHL SUB AND DUP10 DUP3 DUP2 MLOAD DUP2 LT PUSH2 0x2212 JUMPI INVALID JUMPDEST PUSH1 0x20 MUL PUSH1 0x20 ADD ADD MLOAD PUSH1 0x1 PUSH1 0x1 PUSH1 0xA0 SHL SUB AND PUSH1 0x0 DUP1 MLOAD PUSH1 0x20 PUSH2 0x2CBF DUP4 CODECOPY DUP2 MLOAD SWAP2 MSTORE PUSH1 0x2 DUP12 DUP6 DUP2 MLOAD DUP2 LT PUSH2 0x2240 JUMPI INVALID JUMPDEST PUSH1 0x20 MUL PUSH1 0x20 ADD ADD MLOAD DUP16 PUSH1 0x40 MLOAD DUP1 DUP5 DUP2 MSTORE PUSH1 0x20 ADD DUP4 DUP2 MSTORE PUSH1 0x20 ADD DUP3 DUP2 MSTORE PUSH1 0x20 ADD SWAP4 POP POP POP POP PUSH1 0x40 MLOAD DUP1 SWAP2 SUB SWAP1 LOG3 PUSH2 0x227B DUP10 DUP3 DUP2 MLOAD DUP2 LT PUSH2 0x19E7 JUMPI INVALID JUMPDEST PUSH1 0x1 ADD PUSH2 0x21AF JUMP JUMPDEST POP DUP1 PUSH1 0x1 PUSH1 0x1 PUSH1 0xA0 SHL SUB AND PUSH4 0xA9059CBB DUP5 DUP8 PUSH1 0x40 MLOAD DUP4 PUSH4 0xFFFFFFFF AND PUSH1 0xE0 SHL DUP2 MSTORE PUSH1 0x4 ADD DUP1 DUP4 PUSH1 0x1 PUSH1 0x1 PUSH1 0xA0 SHL SUB AND DUP2 MSTORE PUSH1 0x20 ADD DUP3 DUP2 MSTORE PUSH1 0x20 ADD SWAP3 POP POP POP PUSH1 0x20 PUSH1 0x40 MLOAD DUP1 DUP4 SUB DUP2 PUSH1 0x0 DUP8 DUP1 EXTCODESIZE ISZERO DUP1 ISZERO PUSH2 0x22DB JUMPI PUSH1 0x0 DUP1 REVERT JUMPDEST POP GAS CALL ISZERO DUP1 ISZERO PUSH2 0x22EF JUMPI RETURNDATASIZE PUSH1 0x0 DUP1 RETURNDATACOPY RETURNDATASIZE PUSH1 0x0 REVERT JUMPDEST POP POP POP POP PUSH1 0x40 MLOAD RETURNDATASIZE PUSH1 0x20 DUP2 LT ISZERO PUSH2 0x2305 JUMPI PUSH1 0x0 DUP1 REVERT JUMPDEST POP POP POP JUMPDEST PUSH1 0x40 MLOAD CALLER SWAP1 DUP2 SWAP1 DUP4 ISZERO PUSH2 0x8FC MUL SWAP1 DUP5 SWAP1 PUSH1 0x0 DUP2 DUP2 DUP2 DUP6 DUP9 DUP9 CALL SWAP4 POP POP POP POP ISZERO DUP1 ISZERO PUSH2 0x2338 JUMPI RETURNDATASIZE PUSH1 0x0 DUP1 RETURNDATACOPY RETURNDATASIZE PUSH1 0x0 REVERT JUMPDEST POP DUP1 PUSH1 0x1 PUSH1 0x1 PUSH1 0xA0 SHL SUB AND DUP11 PUSH32 0x2D7E3B531DF734E7853174A38701E99525A6E85A9833198543109AE83B1BE9F0 DUP9 DUP9 PUSH1 0x40 MLOAD DUP1 DUP4 DUP2 MSTORE PUSH1 0x20 ADD DUP3 DUP2 MSTORE PUSH1 0x20 ADD SWAP3 POP POP POP PUSH1 0x40 MLOAD DUP1 SWAP2 SUB SWAP1 LOG3 POP POP POP POP POP POP POP POP POP POP JUMP JUMPDEST PUSH1 0x40 DUP1 MLOAD PUSH1 0x1 PUSH1 0x1 PUSH1 0xA0 SHL SUB DUP4 AND PUSH1 0x20 DUP1 DUP4 ADD SWAP2 SWAP1 SWAP2 MSTORE TIMESTAMP DUP3 DUP5 ADD MSTORE DIFFICULTY PUSH1 0x60 DUP4 ADD MSTORE NUMBER PUSH1 0x80 DUP1 DUP5 ADD SWAP2 SWAP1 SWAP2 MSTORE DUP4 MLOAD DUP1 DUP5 SUB SWAP1 SWAP2 ADD DUP2 MSTORE PUSH1 0xA0 SWAP1 SWAP3 ADD SWAP1 SWAP3 MSTORE DUP1 MLOAD SWAP2 ADD KECCAK256 SWAP2 SWAP1 POP JUMP JUMPDEST PUSH1 0x6 SLOAD PUSH1 0x1 PUSH1 0x1 PUSH1 0xA0 SHL SUB AND CALLER EQ PUSH2 0x242B JUMPI PUSH1 0x40 DUP1 MLOAD PUSH3 0x461BCD PUSH1 0xE5 SHL DUP2 MSTORE PUSH1 0x20 PUSH1 0x4 DUP3 ADD MSTORE PUSH1 0x12 PUSH1 0x24 DUP3 ADD MSTORE PUSH18 0x383934BB34B632B233B2B21030B1BA34B7B7 PUSH1 0x71 SHL PUSH1 0x44 DUP3 ADD MSTORE SWAP1 MLOAD SWAP1 DUP2 SWAP1 SUB PUSH1 0x64 ADD SWAP1 REVERT JUMPDEST PUSH1 0x1 PUSH1 0x1 PUSH1 0xA0 SHL SUB DUP2 AND PUSH2 0x2470 JUMPI PUSH1 0x40 MLOAD PUSH3 0x461BCD PUSH1 0xE5 SHL DUP2 MSTORE PUSH1 0x4 ADD DUP1 DUP1 PUSH1 0x20 ADD DUP3 DUP2 SUB DUP3 MSTORE PUSH1 0x22 DUP2 MSTORE PUSH1 0x20 ADD DUP1 PUSH2 0x2C00 PUSH1 0x22 SWAP2 CODECOPY PUSH1 0x40 ADD SWAP2 POP POP PUSH1 0x40 MLOAD DUP1 SWAP2 SUB SWAP1 REVERT JUMPDEST PUSH1 0x8 DUP1 SLOAD PUSH1 0x1 PUSH1 0x1 PUSH1 0xA0 SHL SUB DUP4 AND PUSH1 0x1 PUSH1 0x20 SHL DUP2 MUL PUSH5 0x100000000 PUSH1 0x1 PUSH1 0xC0 SHL SUB NOT SWAP1 SWAP3 AND SWAP2 SWAP1 SWAP2 OR SWAP1 SWAP2 SSTORE PUSH1 0x40 DUP1 MLOAD SWAP2 DUP3 MSTORE MLOAD PUSH32 0xB43A54CB7C4FDFFA59C4DF968B7081B9032C551D37D487662A5012A147673AAA SWAP2 DUP2 SWAP1 SUB PUSH1 0x20 ADD SWAP1 LOG1 POP JUMP JUMPDEST PUSH1 0x3 DUP2 DUP2 SLOAD DUP2 LT PUSH2 0x24DE JUMPI INVALID JUMPDEST PUSH1 0x0 SWAP2 DUP3 MSTORE PUSH1 0x20 SWAP1 SWAP2 KECCAK256 ADD SLOAD PUSH1 0x1 PUSH1 0x1 PUSH1 0xA0 SHL SUB AND SWAP1 POP DUP2 JUMP JUMPDEST PUSH1 0x0 PUSH2 0x2503 ADDRESS PUSH2 0x2861 JUMP JUMPDEST ISZERO SWAP1 POP SWAP1 JUMP JUMPDEST PUSH1 0x40 DUP1 MLOAD PUSH1 0x1 PUSH1 0x1 PUSH1 0xA0 SHL SUB DUP5 AND PUSH1 0x24 DUP3 ADD MSTORE PUSH1 0x44 DUP1 DUP3 ADD DUP5 SWAP1 MSTORE DUP3 MLOAD DUP1 DUP4 SUB SWAP1 SWAP2 ADD DUP2 MSTORE PUSH1 0x64 SWAP1 SWAP2 ADD SWAP1 SWAP2 MSTORE PUSH1 0x20 DUP2 ADD DUP1 MLOAD PUSH1 0x1 PUSH1 0x1 PUSH1 0xE0 SHL SUB AND PUSH4 0xA9059CBB PUSH1 0xE0 SHL OR SWAP1 MSTORE PUSH2 0xEAF SWAP1 DUP5 SWAP1 PUSH2 0x2867 JUMP JUMPDEST PUSH1 0x40 DUP1 MLOAD PUSH1 0x1 PUSH1 0x1 PUSH1 0xA0 SHL SUB DUP1 DUP7 AND PUSH1 0x24 DUP4 ADD MSTORE DUP5 AND PUSH1 0x44 DUP3 ADD MSTORE PUSH1 0x64 DUP1 DUP3 ADD DUP5 SWAP1 MSTORE DUP3 MLOAD DUP1 DUP4 SUB SWAP1 SWAP2 ADD DUP2 MSTORE PUSH1 0x84 SWAP1 SWAP2 ADD SWAP1 SWAP2 MSTORE PUSH1 0x20 DUP2 ADD DUP1 MLOAD PUSH1 0x1 PUSH1 0x1 PUSH1 0xE0 SHL SUB AND PUSH4 0x23B872DD PUSH1 0xE0 SHL OR SWAP1 MSTORE PUSH2 0x25B5 SWAP1 DUP6 SWAP1 PUSH2 0x2867 JUMP JUMPDEST POP POP POP POP JUMP JUMPDEST PUSH1 0x0 PUSH2 0x25C6 DUP3 PUSH2 0x16F9 JUMP JUMPDEST SWAP1 POP PUSH1 0x1 PUSH1 0x1 PUSH1 0xA0 SHL SUB DUP4 AND PUSH2 0x265C JUMPI DUP1 DUP3 ADD DUP5 EQ PUSH2 0x2616 JUMPI PUSH1 0x40 MLOAD PUSH3 0x461BCD PUSH1 0xE5 SHL DUP2 MSTORE PUSH1 0x4 ADD DUP1 DUP1 PUSH1 0x20 ADD DUP3 DUP2 SUB DUP3 MSTORE PUSH1 0x23 DUP2 MSTORE PUSH1 0x20 ADD DUP1 PUSH2 0x2BB4 PUSH1 0x23 SWAP2 CODECOPY PUSH1 0x40 ADD SWAP2 POP POP PUSH1 0x40 MLOAD DUP1 SWAP2 SUB SWAP1 REVERT JUMPDEST PUSH1 0x8 SLOAD PUSH1 0x40 MLOAD PUSH1 0x1 PUSH1 0x20 SHL SWAP1 SWAP2 DIV PUSH1 0x1 PUSH1 0x1 PUSH1 0xA0 SHL SUB AND SWAP1 PUSH2 0x8FC DUP4 ISZERO MUL SWAP1 DUP4 SWAP1 PUSH1 0x0 DUP2 DUP2 DUP2 DUP6 DUP9 DUP9 CALL SWAP4 POP POP POP POP ISZERO DUP1 ISZERO PUSH2 0x2656 JUMPI RETURNDATASIZE PUSH1 0x0 DUP1 RETURNDATACOPY RETURNDATASIZE PUSH1 0x0 REVERT JUMPDEST POP PUSH2 0x1672 JUMP JUMPDEST DUP1 DUP3 ADD DUP4 PUSH1 0x1 PUSH1 0x1 PUSH1 0xA0 SHL SUB AND PUSH4 0x70A08231 CALLER PUSH1 0x40 MLOAD DUP3 PUSH4 0xFFFFFFFF AND PUSH1 0xE0 SHL DUP2 MSTORE PUSH1 0x4 ADD DUP1 DUP3 PUSH1 0x1 PUSH1 0x1 PUSH1 0xA0 SHL SUB AND DUP2 MSTORE PUSH1 0x20 ADD SWAP2 POP POP PUSH1 0x20 PUSH1 0x40 MLOAD DUP1 DUP4 SUB DUP2 DUP7 DUP1 EXTCODESIZE ISZERO DUP1 ISZERO PUSH2 0x26AC JUMPI PUSH1 0x0 DUP1 REVERT JUMPDEST POP GAS STATICCALL ISZERO DUP1 ISZERO PUSH2 0x26C0 JUMPI RETURNDATASIZE PUSH1 0x0 DUP1 RETURNDATACOPY RETURNDATASIZE PUSH1 0x0 REVERT JUMPDEST POP POP POP POP PUSH1 0x40 MLOAD RETURNDATASIZE PUSH1 0x20 DUP2 LT ISZERO PUSH2 0x26D6 JUMPI PUSH1 0x0 DUP1 REVERT JUMPDEST POP MLOAD LT ISZERO PUSH2 0x2715 JUMPI PUSH1 0x40 MLOAD PUSH3 0x461BCD PUSH1 0xE5 SHL DUP2 MSTORE PUSH1 0x4 ADD DUP1 DUP1 PUSH1 0x20 ADD DUP3 DUP2 SUB DUP3 MSTORE PUSH1 0x25 DUP2 MSTORE PUSH1 0x20 ADD DUP1 PUSH2 0x2C9A PUSH1 0x25 SWAP2 CODECOPY PUSH1 0x40 ADD SWAP2 POP POP PUSH1 0x40 MLOAD DUP1 SWAP2 SUB SWAP1 REVERT JUMPDEST PUSH2 0x272A PUSH1 0x1 PUSH1 0x1 PUSH1 0xA0 SHL SUB DUP5 AND CALLER ADDRESS DUP6 PUSH2 0x255B JUMP JUMPDEST PUSH1 0x8 SLOAD PUSH2 0x1672 SWAP1 PUSH1 0x1 PUSH1 0x1 PUSH1 0xA0 SHL SUB DUP6 DUP2 AND SWAP2 CALLER SWAP2 PUSH1 0x1 PUSH1 0x20 SHL SWAP1 SWAP2 DIV AND DUP5 PUSH2 0x255B JUMP JUMPDEST PUSH1 0x0 JUMPDEST PUSH1 0x3 SLOAD DUP2 LT ISZERO PUSH2 0xEAF JUMPI PUSH1 0x0 PUSH1 0x3 DUP3 DUP2 SLOAD DUP2 LT PUSH2 0x276A JUMPI INVALID JUMPDEST PUSH1 0x0 SWAP2 DUP3 MSTORE PUSH1 0x20 DUP1 DUP4 KECCAK256 SWAP1 SWAP2 ADD SLOAD PUSH1 0x1 PUSH1 0x1 PUSH1 0xA0 SHL SUB AND DUP1 DUP4 MSTORE PUSH1 0x4 SWAP1 SWAP2 MSTORE PUSH1 0x40 DUP3 KECCAK256 SWAP1 SWAP3 POP SWAP1 PUSH1 0xFF DUP6 AND ISZERO PUSH2 0x27A4 JUMPI DUP2 PUSH1 0x1 ADD SLOAD PUSH2 0x27A7 JUMP JUMPDEST DUP2 SLOAD JUMPDEST SWAP1 POP PUSH1 0x0 DUP2 GT DUP1 ISZERO PUSH2 0x27D0 JUMPI POP PUSH1 0x1 PUSH1 0x1 PUSH1 0xA0 SHL SUB DUP4 AND PUSH1 0x0 SWAP1 DUP2 MSTORE PUSH1 0x5 PUSH1 0x20 MSTORE PUSH1 0x40 SWAP1 KECCAK256 SLOAD DUP2 LT JUMPDEST ISZERO PUSH2 0x2856 JUMPI PUSH1 0x1 PUSH1 0x1 PUSH1 0xA0 SHL SUB DUP4 AND PUSH1 0x0 DUP2 DUP2 MSTORE PUSH1 0x5 PUSH1 0x20 MSTORE PUSH1 0x40 SWAP1 KECCAK256 DUP1 SLOAD DUP4 SWAP1 SUB SWAP1 SSTORE PUSH2 0x27FF SWAP1 DUP8 DUP4 PUSH2 0x2509 JUMP JUMPDEST DUP3 PUSH1 0x1 PUSH1 0x1 PUSH1 0xA0 SHL SUB AND DUP7 PUSH1 0x1 PUSH1 0x1 PUSH1 0xA0 SHL SUB AND PUSH32 0x3447F133D6AB63EFF2E7894407E65509C1B49BC9874DA1F0B57B87F0A46B8100 DUP8 DUP5 PUSH1 0x40 MLOAD DUP1 DUP4 PUSH1 0xFF AND DUP2 MSTORE PUSH1 0x20 ADD DUP3 DUP2 MSTORE PUSH1 0x20 ADD SWAP3 POP POP POP PUSH1 0x40 MLOAD DUP1 SWAP2 SUB SWAP1 LOG3 JUMPDEST POP POP POP PUSH1 0x1 ADD PUSH2 0x2751 JUMP JUMPDEST EXTCODESIZE ISZERO ISZERO SWAP1 JUMP JUMPDEST PUSH1 0x60 PUSH2 0x28BC DUP3 PUSH1 0x40 MLOAD DUP1 PUSH1 0x40 ADD PUSH1 0x40 MSTORE DUP1 PUSH1 0x20 DUP2 MSTORE PUSH1 0x20 ADD PUSH32 0x5361666545524332303A206C6F772D6C6576656C2063616C6C206661696C6564 DUP2 MSTORE POP DUP6 PUSH1 0x1 PUSH1 0x1 PUSH1 0xA0 SHL SUB AND PUSH2 0x2918 SWAP1 SWAP3 SWAP2 SWAP1 PUSH4 0xFFFFFFFF AND JUMP JUMPDEST DUP1 MLOAD SWAP1 SWAP2 POP ISZERO PUSH2 0xEAF JUMPI DUP1 DUP1 PUSH1 0x20 ADD SWAP1 MLOAD PUSH1 0x20 DUP2 LT ISZERO PUSH2 0x28DB JUMPI PUSH1 0x0 DUP1 REVERT JUMPDEST POP MLOAD PUSH2 0xEAF JUMPI PUSH1 0x40 MLOAD PUSH3 0x461BCD PUSH1 0xE5 SHL DUP2 MSTORE PUSH1 0x4 ADD DUP1 DUP1 PUSH1 0x20 ADD DUP3 DUP2 SUB DUP3 MSTORE PUSH1 0x2A DUP2 MSTORE PUSH1 0x20 ADD DUP1 PUSH2 0x2CDF PUSH1 0x2A SWAP2 CODECOPY PUSH1 0x40 ADD SWAP2 POP POP PUSH1 0x40 MLOAD DUP1 SWAP2 SUB SWAP1 REVERT JUMPDEST PUSH1 0x60 PUSH2 0x2927 DUP5 DUP5 PUSH1 0x0 DUP6 PUSH2 0x2931 JUMP JUMPDEST SWAP1 POP JUMPDEST SWAP4 SWAP3 POP POP POP JUMP JUMPDEST PUSH1 0x60 DUP3 SELFBALANCE LT ISZERO PUSH2 0x2972 JUMPI PUSH1 0x40 MLOAD PUSH3 0x461BCD PUSH1 0xE5 SHL DUP2 MSTORE PUSH1 0x4 ADD DUP1 DUP1 PUSH1 0x20 ADD DUP3 DUP2 SUB DUP3 MSTORE PUSH1 0x26 DUP2 MSTORE PUSH1 0x20 ADD DUP1 PUSH2 0x2C22 PUSH1 0x26 SWAP2 CODECOPY PUSH1 0x40 ADD SWAP2 POP POP PUSH1 0x40 MLOAD DUP1 SWAP2 SUB SWAP1 REVERT JUMPDEST PUSH2 0x297B DUP6 PUSH2 0x2861 JUMP JUMPDEST PUSH2 0x29CC JUMPI PUSH1 0x40 DUP1 MLOAD PUSH3 0x461BCD PUSH1 0xE5 SHL DUP2 MSTORE PUSH1 0x20 PUSH1 0x4 DUP3 ADD MSTORE PUSH1 0x1D PUSH1 0x24 DUP3 ADD MSTORE PUSH32 0x416464726573733A2063616C6C20746F206E6F6E2D636F6E7472616374000000 PUSH1 0x44 DUP3 ADD MSTORE SWAP1 MLOAD SWAP1 DUP2 SWAP1 SUB PUSH1 0x64 ADD SWAP1 REVERT JUMPDEST PUSH1 0x0 PUSH1 0x60 DUP7 PUSH1 0x1 PUSH1 0x1 PUSH1 0xA0 SHL SUB AND DUP6 DUP8 PUSH1 0x40 MLOAD DUP1 DUP3 DUP1 MLOAD SWAP1 PUSH1 0x20 ADD SWAP1 DUP1 DUP4 DUP4 JUMPDEST PUSH1 0x20 DUP4 LT PUSH2 0x2A0B JUMPI DUP1 MLOAD DUP3 MSTORE PUSH1 0x1F NOT SWAP1 SWAP3 ADD SWAP2 PUSH1 0x20 SWAP2 DUP3 ADD SWAP2 ADD PUSH2 0x29EC JUMP JUMPDEST PUSH1 0x1 DUP4 PUSH1 0x20 SUB PUSH2 0x100 EXP SUB DUP1 NOT DUP3 MLOAD AND DUP2 DUP5 MLOAD AND DUP1 DUP3 OR DUP6 MSTORE POP POP POP POP POP POP SWAP1 POP ADD SWAP2 POP POP PUSH1 0x0 PUSH1 0x40 MLOAD DUP1 DUP4 SUB DUP2 DUP6 DUP8 GAS CALL SWAP3 POP POP POP RETURNDATASIZE DUP1 PUSH1 0x0 DUP2 EQ PUSH2 0x2A6D JUMPI PUSH1 0x40 MLOAD SWAP2 POP PUSH1 0x1F NOT PUSH1 0x3F RETURNDATASIZE ADD AND DUP3 ADD PUSH1 0x40 MSTORE RETURNDATASIZE DUP3 MSTORE RETURNDATASIZE PUSH1 0x0 PUSH1 0x20 DUP5 ADD RETURNDATACOPY PUSH2 0x2A72 JUMP JUMPDEST PUSH1 0x60 SWAP2 POP JUMPDEST POP SWAP2 POP SWAP2 POP PUSH2 0x2A82 DUP3 DUP3 DUP7 PUSH2 0x2A8D JUMP JUMPDEST SWAP8 SWAP7 POP POP POP POP POP POP POP JUMP JUMPDEST PUSH1 0x60 DUP4 ISZERO PUSH2 0x2A9C JUMPI POP DUP2 PUSH2 0x292A JUMP JUMPDEST DUP3 MLOAD ISZERO PUSH2 0x2AAC JUMPI DUP3 MLOAD DUP1 DUP5 PUSH1 0x20 ADD REVERT JUMPDEST DUP2 PUSH1 0x40 MLOAD PUSH3 0x461BCD PUSH1 0xE5 SHL DUP2 MSTORE PUSH1 0x4 ADD DUP1 DUP1 PUSH1 0x20 ADD DUP3 DUP2 SUB DUP3 MSTORE DUP4 DUP2 DUP2 MLOAD DUP2 MSTORE PUSH1 0x20 ADD SWAP2 POP DUP1 MLOAD SWAP1 PUSH1 0x20 ADD SWAP1 DUP1 DUP4 DUP4 PUSH1 0x0 JUMPDEST DUP4 DUP2 LT ISZERO PUSH2 0x2AF6 JUMPI DUP2 DUP2 ADD MLOAD DUP4 DUP3 ADD MSTORE PUSH1 0x20 ADD PUSH2 0x2ADE JUMP JUMPDEST POP POP POP POP SWAP1 POP SWAP1 DUP2 ADD SWAP1 PUSH1 0x1F AND DUP1 ISZERO PUSH2 0x2B23 JUMPI DUP1 DUP3 SUB DUP1 MLOAD PUSH1 0x1 DUP4 PUSH1 0x20 SUB PUSH2 0x100 EXP SUB NOT AND DUP2 MSTORE PUSH1 0x20 ADD SWAP2 POP JUMPDEST POP SWAP3 POP POP POP PUSH1 0x40 MLOAD DUP1 SWAP2 SUB SWAP1 REVERT JUMPDEST DUP3 DUP1 SLOAD DUP3 DUP3 SSTORE SWAP1 PUSH1 0x0 MSTORE PUSH1 0x20 PUSH1 0x0 KECCAK256 SWAP1 DUP2 ADD SWAP3 DUP3 ISZERO PUSH2 0x2B84 JUMPI SWAP2 PUSH1 0x20 MUL DUP3 ADD JUMPDEST DUP3 DUP2 GT ISZERO PUSH2 0x2B84 JUMPI DUP2 SLOAD PUSH1 0x1 PUSH1 0x1 PUSH1 0xA0 SHL SUB NOT AND PUSH1 0x1 PUSH1 0x1 PUSH1 0xA0 SHL SUB DUP5 CALLDATALOAD AND OR DUP3 SSTORE PUSH1 0x20 SWAP1 SWAP3 ADD SWAP2 PUSH1 0x1 SWAP1 SWAP2 ADD SWAP1 PUSH2 0x2B51 JUMP JUMPDEST POP PUSH2 0x2B90 SWAP3 SWAP2 POP PUSH2 0x2B94 JUMP JUMPDEST POP SWAP1 JUMP JUMPDEST JUMPDEST DUP1 DUP3 GT ISZERO PUSH2 0x2B90 JUMPI DUP1 SLOAD PUSH1 0x1 PUSH1 0x1 PUSH1 0xA0 SHL SUB NOT AND DUP2 SSTORE PUSH1 0x1 ADD PUSH2 0x2B95 JUMP INVALID PUSH10 0x6E636F72726563742061 PUSH14 0x6F756E74206F6620657468207472 PUSH2 0x6E73 PUSH7 0x65727265646C75 PUSH4 0x6B794D6F PUSH15 0x6579206E6F742066756C6C7920636F PUSH13 0x6C6563746564206F7220657870 PUSH10 0x72656466656520726563 PUSH6 0x697665722063 PUSH2 0x6E27 PUSH21 0x206265207A65726F20616464726573734164647265 PUSH20 0x733A20696E73756666696369656E742062616C61 PUSH15 0x636520666F722063616C6C496E6974 PUSH10 0x616C697A61626C653A20 PUSH4 0x6F6E7472 PUSH2 0x6374 KECCAK256 PUSH10 0x7320616C726561647920 PUSH10 0x6E697469616C697A6564 PUSH19 0x656D61696E20726577617264206E6F7420656E PUSH16 0x75676820746F20776974686472617769 PUSH15 0x636F727265637420616D6F756E7420 PUSH16 0x6620746F6B656E207472616E73666572 PUSH19 0x6564D5D1517D3172E6ED7C29298D19597B618A 0xED SWAP1 0xEA 0x4E 0xA9 DUP13 0xE0 PUSH5 0xC5529845FB 0xF7 EXP MSTORE8 PUSH2 0x6665 GASLIMIT MSTORE NUMBER ORIGIN ADDRESS GASPRICE KECCAK256 GASLIMIT MSTORE NUMBER ORIGIN ADDRESS KECCAK256 PUSH16 0x7065726174696F6E20646964206E6F74 KECCAK256 PUSH20 0x756363656564A264697066735822122002AFDC0E PUSH9 0xBF9B4C3D6B6C93740F LOG0 0xB1 NUMBER SGT 0xAD 0x5C DELEGATECALL 0xDE 0xF7 CALLCODE DIFFICULTY 0x21 0x4D 0xA7 0xAE DUP6 SLOAD LOG4 PUSH5 0x736F6C6343 STOP MOD 0xC STOP CALLER ",
  "sha1": "bcdc730aa72e7a33876cafd95ab2564987e8f4f0",
  "source": "// SPDX-License-Identifier: MIT\npragma solidity 0.6.12;\n\nimport \"./lib/ERC20/IERC20.sol\";\nimport \"./lib/ERC20/SafeERC20.sol\";\n\nimport \"./lib/Context.sol\";\nimport \"./lib/ReentrancyGuard.sol\";\nimport \"./proxy/Initializable.sol\";\n\ncontract LuckyMoney is Context, Initializable, ReentrancyGuard {\n    using SafeERC20 for IERC20;\n\n    struct Record {\n        address collector;\n        bytes32 seed;\n    }\n\n    struct LuckyMoneyData {\n        address creator;\n        uint256 expireTime;\n        // 0 for random, 1 for fixed\n        uint8 mode;\n        address tokenAddr;\n        uint256 tokenAmount;\n        uint256 collectorCount;\n        uint256 nonce;\n        uint256 refundAmount;\n        mapping (address => bool) collectStatus;\n        mapping (uint256 => Record) records;\n    }\n\n    mapping (bytes32 => LuckyMoneyData) public luckyMoneys;\n\n    struct RewardConfig {\n        uint256 forSender;\n        uint256 forReceiver;\n    }\n\n    address[] public rewards;\n    mapping (address => RewardConfig) public rewardConfigs;\n    mapping (address => uint256) public rewardBalances;\n\n    event Disperse(\n        address indexed _sender,\n        address _tokenAddr,\n        uint256 _tokenAmount,\n        uint256 _fee\n    );\n    event Create(\n        bytes32 indexed _id,\n        address _tokenAddr,\n        uint256 _tokenAmount,\n        uint256 _expireTime,\n        uint256 _collectorCount,\n        uint256 _fee,\n        uint256 _gasRefund\n    );\n    event Collect(\n        address indexed _collector,\n        address indexed _tokenAddress,\n        // 0 for disperse, 1 for luckyMoney\n        uint8 _mode,\n        uint256 _tokenAmount,\n        bytes32 _id\n    );\n    event Distribute(\n        bytes32 indexed _id,\n        address indexed _caller,\n        uint256 _remainCollector,\n        uint256 _remainTokenAmount\n    );\n    event RewardCollect(\n        address indexed _collector,\n        address indexed _tokenAddr,\n        // 0 for send, 1 for receive\n        uint8 _mode,\n        uint256 amount);\n    event FeeRateUpdate(uint16 feeRate);\n    event FeeReceiverUpdate(address receiver);\n    event OwnershipUpdate(address oldOwner, address newOwner);\n\n    address public owner;\n    uint256 public refundAmount = 1e15; // 0.001\n\n    // Fee = total * feeRate / feeBase\n    // For example, feeRate as 100 means 1% fee.\n    uint16 public feeRate = 10;\n    uint16 public feeBase = 10000;\n    address public feeReceiver;\n\n    constructor() public {}\n\n    function initialize(address _owner, address _feeReceiver) external initializer {\n        owner = _owner;\n        feeReceiver = _feeReceiver;\n\n        feeRate = 10;\n        feeBase = 10000;\n        refundAmount = 1e15;\n\n    }\n\n    // ========= Normal disperse =========\n\n    function disperseEther(address payable[] memory recipients, uint256[] memory values) external payable {\n        address sender = msg.sender;\n        uint256 total = 0;\n        for (uint256 i = 0; i < recipients.length; i++) {\n            total += values[i];\n        }\n        uint256 fee = takeFeeAndValidate(sender, msg.value, address(0), total);\n        giveReward(sender, 0);\n        emit Disperse(sender, address(0), total, fee);\n\n        for (uint256 i = 0; i < recipients.length; i++) {\n            recipients[i].transfer(values[i]);\n            emit Collect(recipients[i], address(0), 1, values[i], 0);\n            giveReward(recipients[i], 1);\n        }\n    }\n\n    function disperseToken(IERC20 token, address[] memory recipients, uint256[] memory values) external {\n        address sender = msg.sender;\n        uint256 total = 0;\n        for (uint256 i = 0; i < recipients.length; i++) {\n            total += values[i];\n        }\n        uint256 fee = takeFeeAndValidate(sender, 0, address(token), total);\n        giveReward(sender, 0);\n        emit Disperse(sender, address(token), total, fee);\n\n        for (uint256 i = 0; i < recipients.length; i++) {\n            token.safeTransfer(recipients[i], values[i]);\n            emit Collect(recipients[i], address(token), 1, values[i], 0);\n            giveReward(recipients[i], 1);\n        }\n    }\n\n    // ========= LuckyMoney which need signature to collect =========\n    function create(\n        uint256 expireTime, \n        uint8 mode, \n        address tokenAddr, \n        uint256 tokenAmount, \n        uint256 collectorCount) \n        external payable returns (bytes32) {\n\n        address sender = msg.sender;\n        uint256 value = msg.value;\n\n        require(value >= refundAmount, \"not enough to refund later\");\n        uint256 fee = takeFeeAndValidate(sender, msg.value - refundAmount, tokenAddr, tokenAmount);\n\n        bytes32 luckyMoneyId = getLuckyMoneyId(sender, block.timestamp, tokenAddr, tokenAmount, collectorCount);\n        LuckyMoneyData storage l = luckyMoneys[luckyMoneyId];\n        l.creator = sender;\n        l.expireTime = expireTime;\n        l.mode = mode;\n        l.tokenAddr = tokenAddr;\n        l.tokenAmount = tokenAmount;\n        l.collectorCount = collectorCount;\n        l.refundAmount = refundAmount;\n        emit Create(luckyMoneyId, tokenAddr, tokenAmount, expireTime, collectorCount, fee, refundAmount);\n        giveReward(sender, 0);\n\n        return luckyMoneyId;\n    }\n\n    function submit(bytes32 luckyMoneyId, bytes memory signature) external {\n        address sender = msg.sender;\n        LuckyMoneyData storage l = luckyMoneys[luckyMoneyId];\n        require(!hasCollected(luckyMoneyId, sender), \"collected before\");\n        require(l.nonce < l.collectorCount, \"collector count exceed\");\n\n        // Verify signature\n        bytes32 hash = getEthSignedMessageHash(luckyMoneyId, sender);\n        require(recoverSigner(hash, signature) == l.creator, \"signature not signed by creator\");\n        l.records[l.nonce] = Record(sender, getBlockAsSeed(sender));\n        l.nonce += 1;\n        l.collectStatus[sender] = true;\n    }\n\n    function distribute(bytes32 luckyMoneyId) external {\n        LuckyMoneyData storage l = luckyMoneys[luckyMoneyId];\n        require(l.nonce == l.collectorCount || block.timestamp > l.expireTime, \"luckyMoney not fully collected or expired\");\n        // generate amounts\n        address payable[] memory recipients = new address payable[](l.nonce);\n        uint256[] memory values = new uint256[](l.nonce);\n        uint256 remainCollectorCount = l.collectorCount;\n        uint256 remainTokenAmount = l.tokenAmount;\n\n        if (l.mode == 1) {\n            // - Fix mode\n            uint256 avgAmount = l.tokenAmount / l.collectorCount;\n            remainCollectorCount = l.collectorCount - l.nonce;\n            remainTokenAmount = l.tokenAmount - avgAmount * l.nonce;\n            for (uint256 i = 0; i < l.nonce; i++) {\n                recipients[i] = payable(l.records[i].collector);\n                values[i] = avgAmount;\n            }\n        } else if (l.mode == 0) {\n\n            // - Random mode\n            bytes32 seed;\n            for (uint256 i = 0; i < l.nonce; i++) {\n                seed = seed ^ l.records[i].seed;\n            }\n\n            for (uint256 i = 0; i < l.nonce; i++) {\n                recipients[i] = payable(l.records[i].collector);\n                values[i] = calculateRandomAmount(seed, l.records[i].seed, remainTokenAmount, remainCollectorCount);\n                remainCollectorCount -= 1;\n                remainTokenAmount -= values[i];\n            }\n        }\n\n        address tokenAddr = l.tokenAddr;\n        address creator = l.creator;\n        uint256 _refundAmount = l.refundAmount;\n        // prevent reentrency attack, delete state before calling external transfer\n        delete luckyMoneys[luckyMoneyId];\n\n        // distribute\n        if (tokenAddr == address(0)) {\n            // - ETH\n            for (uint256 i = 0; i < recipients.length; i++) {\n                recipients[i].transfer(values[i]);\n                emit Collect(recipients[i], tokenAddr, 2, values[i], luckyMoneyId);\n                giveReward(recipients[i], 1);\n            }\n            // return exceed ethers to creator\n            payable(creator).transfer(remainTokenAmount);\n        } else {\n\n            // - Token\n            IERC20 token = IERC20(tokenAddr);\n            for (uint256 i = 0; i < recipients.length; i++) {\n                token.safeTransfer(recipients[i], values[i]);\n                emit Collect(recipients[i], tokenAddr, 2, values[i], luckyMoneyId);\n                giveReward(recipients[i], 1);\n            }\n            // return exceed tokens to creator\n            token.transfer(creator, remainTokenAmount);\n        }\n        \n        address sender = msg.sender;\n        // refund caller\n        payable(sender).transfer(_refundAmount);\n        emit Distribute(luckyMoneyId, sender, remainCollectorCount, remainTokenAmount);\n    }\n\n    // ========= Admin functions =========\n\n    function setOwner(address _owner) external {\n        require(msg.sender == owner, \"priviledged action\");\n\n        emit OwnershipUpdate(owner, _owner);\n        owner = _owner;\n    }\n\n    function setRefundAmount(uint256 _amount) external {\n        require(msg.sender == owner, \"priviledged action\");\n\n        refundAmount = _amount;\n    }\n\n    function setFeeRate(uint16 _feeRate) external {\n        require(msg.sender == owner, \"priviledged action\");\n        require(_feeRate <= 10000, \"fee rate greater than 100%\");\n\n        feeRate = _feeRate;\n        emit FeeRateUpdate(_feeRate);\n    }\n\n    function setFeeReceiver(address _receiver) external {\n        require(msg.sender == owner, \"priviledged action\");\n        require(_receiver != address(0), \"fee receiver can't be zero address\");\n\n        feeReceiver = _receiver;\n        emit FeeReceiverUpdate(_receiver);\n    }\n\n    function setRewardTokens(address[] calldata rewardTokens) external {\n        require(msg.sender == owner, \"priviledged action\");\n\n        rewards = rewardTokens;\n    }\n\n    function configRewardRate(address rewardToken, uint256 forSender, uint256 forReceiver) external {\n        require(msg.sender == owner, \"priviledged action\");\n\n        rewardConfigs[rewardToken] = RewardConfig(forSender, forReceiver);\n    }\n\n    function addReward(address tokenAddr, uint256 amount) external {\n        IERC20(tokenAddr).safeTransferFrom(msg.sender, address(this), amount);\n        rewardBalances[tokenAddr] += amount;\n    }\n\n    function withdrawReward(address tokenAddr, uint256 amount) external {\n        require(msg.sender == owner, \"priviledged action\");\n        require(rewardBalances[tokenAddr] >= amount, \"remain reward not enough to withdraw\");\n\n        IERC20(tokenAddr).safeTransfer(owner, amount);\n        rewardBalances[tokenAddr] -= amount;\n    }\n\n    // ========= View functions =========\n\n    function hasCollected(bytes32 luckyMoneyId, address collector) public view returns (bool) {\n        return luckyMoneys[luckyMoneyId].collectStatus[collector];\n    }\n\n    function expireTime(bytes32 luckyMoneyId) public view returns (uint256) {\n        return luckyMoneys[luckyMoneyId].expireTime;\n    }\n\n    function feeOf(uint256 amount) public view returns (uint256) {\n        return amount * feeRate / feeBase;\n    }\n\n    // ========= Util functions =========\n\n    function takeFeeAndValidate(address sender, uint256 value, address tokenAddr, uint256 tokenAmount) internal returns (uint256 fee) {\n        fee = feeOf(tokenAmount);\n        if (tokenAddr == address(0)) {\n            require(value == tokenAmount + fee, \"incorrect amount of eth transferred\");\n            payable(feeReceiver).transfer(fee);\n        } else {\n            require(IERC20(tokenAddr).balanceOf(msg.sender) >= tokenAmount + fee, \"incorrect amount of token transferred\");\n            IERC20(tokenAddr).safeTransferFrom(msg.sender, address(this), tokenAmount);\n            IERC20(tokenAddr).safeTransferFrom(msg.sender, address(feeReceiver), fee);\n        }\n    }\n\n    function giveReward(address target, uint8 mode) internal {\n        for (uint256 i = 0; i < rewards.length; i++) {\n            address token = rewards[i];\n            RewardConfig storage config = rewardConfigs[token];\n            uint256 amount = mode == 0 ? config.forSender : config.forReceiver;\n            if (amount > 0 && rewardBalances[token] > amount) {\n                rewardBalances[token] -= amount;\n                IERC20(token).safeTransfer(target, amount);\n                emit RewardCollect(target, token, mode, amount);\n            }\n        }\n    }\n\n    // TODO will chainId matters? for security?\n    function getLuckyMoneyId(\n        address _creator,\n        uint256 _startTime,\n        address _tokenAddr,\n        uint256 _tokenAmount,\n        uint256 _collectorCount\n    ) public pure returns (bytes32) {\n        return keccak256(abi.encodePacked(_creator, _startTime, _tokenAddr, _tokenAmount, _collectorCount));\n    }\n\n    function getBlockAsSeed(address addr) public view returns (bytes32) {\n        return keccak256(abi.encode(addr, block.timestamp, block.difficulty, block.number));\n    }\n\n    function calculateRandomAmount(bytes32 rootSeed, bytes32 seed, uint256 remainAmount, uint remainCount) public pure returns (uint256) {\n        uint256 amount = 0;\n        if (remainCount == 1) {\n            amount = remainAmount;\n        } else if (remainCount == remainAmount) {\n            amount = 1;\n        } else if (remainCount < remainAmount) {\n            amount = uint256(keccak256(abi.encode(rootSeed, seed))) % (remainAmount / remainCount * 2) + 1;\n        }\n        return amount;\n    }\n\n    function getMessageHash(\n        bytes32 _luckyMoneyId,\n        address _collector\n    ) public pure returns (bytes32) {\n        return keccak256(abi.encodePacked(_luckyMoneyId, _collector));\n    }\n\n  function getEthSignedMessageHash(\n        bytes32 _luckyMoneyId,\n        address _collector\n  )\n        public\n        pure\n        returns (bytes32)\n    {\n        bytes32 _messageHash = getMessageHash(_luckyMoneyId, _collector);\n        /*\n        Signature is produced by signing a keccak256 hash with the following format:\n        \"\\x19Ethereum Signed Message\\n\" + len(msg) + msg\n        */\n        return\n            keccak256(\n                abi.encodePacked(\"\\x19Ethereum Signed Message:\\n32\", _messageHash)\n            );\n    }\n\n    function recoverSigner(bytes32 _ethSignedMessageHash, bytes memory _signature)\n        public\n        pure\n        returns (address)\n    {\n        (bytes32 r, bytes32 s, uint8 v) = splitSignature(_signature);\n\n        return ecrecover(_ethSignedMessageHash, v, r, s);\n    }\n\n    function splitSignature(bytes memory sig)\n        public\n        pure\n        returns (\n            bytes32 r,\n            bytes32 s,\n            uint8 v\n        )\n    {\n        require(sig.length == 65, \"invalid signature length\");\n\n        assembly {\n            /*\n            First 32 bytes stores the length of the signature\n\n            add(sig, 32) = pointer of sig + 32\n            effectively, skips first 32 bytes of signature\n\n            mload(p) loads next 32 bytes starting at the memory address p into memory\n            */\n\n            // first 32 bytes, after the length prefix\n            r := mload(add(sig, 32))\n            // second 32 bytes\n            s := mload(add(sig, 64))\n            // final byte (first byte of the next 32 bytes)\n            v := byte(0, mload(add(sig, 96)))\n        }\n        // implicitly return (r, s, v)\n    }\n\n    function GetInitializeData(address _owner, address _feeReceiver) public pure returns(bytes memory){\n        return abi.encodeWithSignature(\"initialize(address,address)\", _owner,_feeReceiver);\n    }\n\n    function uint2str(uint _i) internal pure returns (string memory _uintAsString) {\n        if (_i == 0) {\n            return \"0\";\n        }\n        uint j = _i;\n        uint len;\n        while (j != 0) {\n            len++;\n            j /= 10;\n        }\n        bytes memory bstr = new bytes(len);\n        uint k = len;\n        while (_i != 0) {\n            k = k-1;\n            uint8 temp = (48 + uint8(_i - _i / 10 * 10));\n            bytes1 b1 = bytes1(temp);\n            bstr[k] = b1;\n            _i /= 10;\n        }\n        return string(bstr);\n    }\n}\n",
  "sourcePath": "contracts/LuckyMoney.sol",
  "type": "contract"
}